:020000040800F2
:10000000300700209D110008D5070008D707000819
:10001000DB070008DF070008E30700080000000016
:10002000000000000000000000000000E7070008DA
:10003000E907000800000000EB070008ED070008D2
:10004000B7110008B7110008B7110008B711000870
:10005000B7110008B7110008B7110008B711000860
:10006000B7110008B7110008B7110008B711000850
:10007000B7110008B7110008B7110008B711000840
:10008000B7110008B7110008B7110008B711000830
:10009000B7110008B7110008B7110008B711000820
:1000A000B7110008B7110008B7110008B711000810
:1000B000B7110008B7110008B7110008B711000800
:1000C000B7110008B7110008B7110008B7110008F0
:1000D000B71100083B110008B7110008B71100085C
:1000E000B7110008B7110008B7110008B7110008D0
:1000F000B7110008B7110008B7110008B7110008C0
:10010000B7110008B7110008B7110008B7110008AF
:10011000B7110008B7110008B7110008B71100089F
:10012000B7110008B7110008B7110008B71100088F
:1001300000F002F800F03AF80AA090E8000C8244BF
:100140008344AAF10107DA4501D100F02FF8AFF29C
:10015000090EBAE80F0013F0010F18BFFB1A43F0A5
:10016000010318472021000040210000103A24BF5D
:1001700078C878C1FAD8520724BF30C830C144BF0C
:1001800004680C607047000000230024002500264E
:10019000103A28BF78C1FBD8520728BF30C148BFEA
:1001A0000B6070471FB51FBD10B510BD01F066FF95
:1001B0001146FFF7F7FF00F020F801F084FF03B4C9
:1001C000FFF7F2FF03BC00F04FFF000010B500F096
:1001D000E1FE4FF4A06001F001F84FF4E13000F0CF
:1001E00052FF00F0F5FB4FF4E13000F017FCFE4841
:1001F00001F0E6FD01F096FE10BDDCB0642143A8DD
:1002000001F011FF4FF000080027FFF7DFFFDBE2EE
:10021000F54800788DF88000F34840788DF881002B
:10022000F14880788DF88200EF48C0788DF883001F
:10023000ED4800798DF88400EB4840798DF8850011
:10024000E94880798DF88600E748C0798DF8870005
:10025000E548007A8DF88800E348407A8DF88900F7
:10026000E148807A8DF88A00DF48C07A8DF88B00EB
:10027000DD48007B8DF88C00DB48407B8DF88D00DD
:10028000D948807B8DF88E00D748C07B8DF88F00D1
:10029000D548007C8DF89000D348407C8DF89100C3
:1002A000D148807C8DF89200CF48C07C8DF89300B7
:1002B000CD48007D8DF89400CB48407D8DF89500A9
:1002C000C948807D8DF89600C748C07D8DF897009D
:1002D000C548007E8DF89800C348407E8DF899008F
:1002E000C148807E8DF89A00BF48C07E8DF89B0083
:1002F000BD48007F8DF89C00BB48407F8DF89D0075
:10030000B948807F8DF89E00B748C07F8DF89F0068
:10031000B54890F820008DF8A000B34890F821006F
:100320008DF8A100B04890F822008DF8A200AE48E8
:1003300090F823008DF8A300AB4890F824008DF8C6
:10034000A400A94890F825008DF8A500A64890F8CB
:1003500026008DF8A600A44890F827008DF8A70085
:10036000A14890F828008DF8A8009F4890F829002F
:100370008DF8A9009C4890F82A008DF8AA009A48A8
:1003800090F82B008DF8AB00974890F82C008DF872
:10039000AC00954890F82D008DF8AD00924890F88B
:1003A0002E008DF8AE00904890F82F008DF8AF0029
:1003B0008D4890F830008DF8B0008B4890F83100EF
:1003C0008DF8B100884890F832008DF8B200864868
:1003D00090F833008DF8B300834890F834008DF81E
:1003E000B400814890F835008DF8B5007E4890F84B
:1003F00036008DF8B6007C4890F837008DF8B700CD
:10040000794890F838008DF8B800774890F83900AE
:100410008DF8B900744890F83A008DF8BA00724827
:1004200090F83B008DF8BB006F4890F83C008DF8C9
:10043000BC006D4890F83D008DF8BD006A4890F80A
:100440003E008DF8BE00684890F83F008DF8BF0070
:10045000654890F840008DF8C000634890F841006E
:100460008DF8C100604890F842008DF8C2005E48E7
:1004700090F843008DF8C3005B4890F844008DF875
:10048000C400594890F845008DF8C500564890F8CA
:1004900046008DF8C600544890F847008DF8C70014
:1004A000514890F848008DF8C8004F4890F849002E
:1004B0008DF8C9004C4890F84A008DF8CA004A48A7
:1004C00090F84B008DF8CB00474890F84C008DF821
:1004D000CC00454890F84D008DF8CD00424890F88A
:1004E0004E008DF8CE00404890F84F008DF8CF00B8
:1004F0003D4890F850008DF8D0003B4890F85100EE
:100500008DF8D100384890F852008DF8D200364866
:1005100090F853008DF8D300334890F854008DF8CC
:10052000D400314890F855008DF8D5002E4890F849
:1005300056008DF8D6002C4890F857008DF8D7005B
:10054000294890F858008DF8D800274890F85900AD
:100550008DF8D900244890F85A008DF8DA00224826
:1005600090F85B008DF8DB001F4890F85C008DF878
:10057000DC001D4890F85D008DF8DD001A4890F809
:100580005E008DF8DE00184890F85F008DF8DF00FF
:10059000154890F860008DF8E000134890F861006D
:1005A0008DF8E100104890F862008DF8E2000E48E6
:1005B00090F863008DF8E3000B4890F864008DF824
:1005C000E400094890F865008DF8E500064890F8C9
:1005D00066008DF8E600044890F867008DF8E700A3
:1005E000014890F8680001E0400000208DF8E80024
:1005F000764890F869008DF8E900744890F86A0030
:100600008DF8EA00714890F86B008DF8EB006F48A8
:1006100090F86C008DF8EC006C4890F86D008DF847
:10062000ED006A4890F86E008DF8EE00674890F88B
:100630006F008DF8EF00654890F870008DF8F000BD
:10064000624890F871008DF8F100604890F87200EF
:100650008DF8F2005D4890F873008DF8F3005B4868
:1006600090F874008DF8F400584890F875008DF8F3
:10067000F500564890F876008DF8F600534890F84B
:1006800077008DF8F700514890F878008DF8F80061
:100690004E4890F879008DF8F9004C4890F87A00AF
:1006A0008DF8FA00494890F87B008DF8FB00474828
:1006B00090F87C008DF8FC00444890F87D008DF89F
:1006C000FD00424890F87E008DF8FE003F4890F80B
:1006D0007F008DF8FF003D4890F880008DF8000104
:1006E0003A48D0F8840041903848D0F888007C22FD
:1006F00024A94290684601F064FC20A80FC801F0CC
:1007000085FB00B160E0314801F061FB0446082F31
:1007100056D2DFE807F0040C55121D252E3DFF2CA4
:1007200004D1012700202A49088080464AE0FF2C96
:1007300001D1032700E0002744E0012C06D1244822
:100740000088204422490880042700E0002739E07F
:100750001F48008820441E4908802546052731E0AF
:100760001B48008820441A49088044EA05260627C9
:1007700028E0174800882044154908804046411C5D
:100780001FFA81F843A90C54B04500DB072719E094
:100790000F490888C11700EB11610912A0EB012174
:1007A0000B4A118010460088844207D143A801F00B
:1007B0005DFB002006490880002700E0002701E0DB
:1007C000002700BF00BF00BF22E50000400000205E
:1007D00000000020704700BFFEE700BFFEE700BF3B
:1007E000FEE700BFFEE770477047704770470000A4
:1007F0000CB50020019000906C48006840F48030F7
:100800006A49086000BF6948006800F40030009041
:100810000198401C0190009818B90198B0F5A06F9C
:10082000F1D16248006800F4003010B1012000905E
:1008300001E0002000900098012843D15C48006846
:1008400040F010005A4908600846006820F0030094
:1008500008600846006840F002000860534840689D
:10086000524948600846406848600846406840F47D
:10087000806048600846406820F47C104860084664
:10088000406840F4E81048600846006840F0807016
:10089000086000BF4548006800F000700028F9D0EB
:1008A0004248406820F003004049486008464068DC
:1008B00040F00200486000BF3C48406800F00C0077
:1008C0000828F9D10CBD10B5FFF792FF10BD10B587
:1008D0003648006840F00100344908600846406826
:1008E00034490840314948600846006832490840A8
:1008F0002E4908600846006820F4802008600846F9
:10090000406820F4FE0048604FF41F008860FFF745
:10091000DAFF4FF000602949086010BD10B50021D2
:1009200000200022214B5B6803F00C0121B1042957
:1009300006D0082928D107E0214B224C236027E06C
:100940001F4B204C236023E0184B5B6803F47010AE
:10095000164B5B6803F48032022303EB904022B90C
:10096000194B4343174C23600DE0104B5B6803F4B5
:10097000003323B1144B4343124C236003E0104B6C
:100980004343104C236003E00D4B0E4C236000BF2B
:1009900000BF064B5B68C3F303130C4CE15C094BCF
:1009A0001B68CB40074C236010BD000000100240C4
:1009B000002002400000FFF8FFFFF6FE08ED00E017
:1009C00000127A000400002000093D000800002009
:1009D00008B50121482000F08BFF2020ADF8000071
:1009E00010208DF8030003208DF8020069460948A5
:1009F00000F0C2FC2021074800F06BFD2020ADF87C
:100A000000006946044800F0B7FC2021024800F0CD
:100A100060FD08BD000C01400018014010B586B013
:100A200004460121242000F063FF0121480400F066
:100A30006CFF8020ADF8140010208DF81700032003
:100A40008DF8160005A9FE4800F096FC0420ADF8CC
:100A5000140018208DF8170005A9FA4800F08CFC46
:100A60000820ADF8140004208DF8170005A9F548FA
:100A700000F082FC0121480400F061FF00214FF4E6
:100A8000003000F05CFF01940020ADF80800ADF8E4
:100A90000A00ADF80C00ADF810000C20ADF80E0007
:100AA00001A9E94800F0CBFF26208DF800000320C3
:100AB0008DF801008DF8020001208DF803006846D2
:100AC00000F091FB012240F22551DF4801F04FF880
:100AD0000121DD4801F03FF80120DC49086006B043
:100AE00010BD10B5044600BF4021D74801F00EF9F3
:100AF0000028F9D02146D44801F09AF810BD10B56D
:100B000004464820FFF7EDFF2046FFF7EAFF552097
:100B1000FFF7E7FF5520FFF7E4FF5520FFF7E1FF60
:100B20005520FFF7DEFF5520FFF7DBFF5520FFF7CD
:100B3000D8FF5520FFF7D5FF5520FFF7D2FF10BD96
:100B400070B505460C464820FFF7CBFF2846FFF757
:100B5000C8FF2046FFF7C5FF5520FFF7C2FF55200D
:100B6000FFF7BFFF5520FFF7BCFF5520FFF7B9FF88
:100B70005520FFF7B6FF5520FFF7B3FF5520FFF7CD
:100B8000B0FF70BD70B505460C4641F28830844216
:100B900001DD044603E0AE48844200DA0446482002
:100BA000FFF79FFF2846FFF79CFFC4F30720FFF7DE
:100BB00098FFE0B2FFF795FF5520FFF792FF552011
:100BC000FFF78FFF5520FFF78CFF5520FFF789FFB8
:100BD0005520FFF786FF5520FFF783FF70BD70B5E6
:100BE00006460C46154641F28830844201DD044633
:100BF00003E09748844200DA0446002C04DA01DD61
:100C0000204600E0604204B2B5F5C86F02DD4FF443
:100C1000C86503E015F5C86F00DA8E4D4820FFF770
:100C200060FF3046FFF75DFFC4F30720FFF759FF71
:100C3000E0B2FFF756FFC5F30720FFF752FFE8B217
:100C4000FFF74FFF5520FFF74CFF5520FFF749FFF7
:100C50005520FFF746FF5520FFF743FF70BD70B5E5
:100C600006460C46154641F28830844201DD0446B2
:100C700003E07748844200DA0446002C04DA01DD00
:100C8000204600E0604204B2B5F5FA6F02DD4FF491
:100C9000FA6503E015F5FA6F00DA6F4D4820FFF7AB
:100CA00020FF3046FFF71DFFC4F30720FFF719FFB1
:100CB000E0B2FFF716FFC5F30720FFF712FFE8B217
:100CC000FFF70FFF5520FFF70CFF5520FFF709FF37
:100CD0005520FFF706FF5520FFF703FF70BD70B5E5
:100CE00006460C46154641F28830844201DD044632
:100CF00003E05748844200DA0446002C04DA01DDA0
:100D0000204600E0604204B24820FFF7EAFE304689
:100D1000FFF7E7FEC4F30720FFF7E3FEE0B2FFF7BB
:100D2000E0FE5520FFF7DDFE5520FFF7DAFE280E26
:100D3000FFF7D7FEC5F30740FFF7D3FEC5F3072043
:100D4000FFF7CFFEE8B2FFF7CCFE70BD2DE9F04112
:100D500007460C4615461E4641F28830844201DDA6
:100D6000044603E03A48844200DA0446002C04DAE0
:100D700001DD204600E0604204B2B5F5FA6F02DD05
:100D80004FF4FA6503E015F5FA6F00DA324D002DE5
:100D900004DA01DD284600E0684205B24820FFF78A
:100DA000A0FE3846FFF79DFEC4F30720FFF799FE2B
:100DB000E0B2FFF796FEC5F30720FFF792FEE8B218
:100DC000FFF78FFE300EFFF78CFEC6F30740FFF7EC
:100DD00088FEC6F30720FFF784FEF0B2FFF781FE1E
:100DE000BDE8F08170B506460C461546B4F5C86FEF
:100DF00002DD4FF4C86403E014F5C86F00DA154C47
:100E0000002C04DA01DD204600E0604204B2B5F5B2
:100E1000FA6F02DD4FF4FA6503E015F5FA6F00DAB8
:100E20000D4D4820FFF75DFE3046FFF75AFEC4F334
:100E30000720FFF756FEE0B2FFF753FE0EE000007A
:100E40000014014000080140004400409C812242FF
:100E500078ECFFFFC0F9FFFF30F8FFFFC5F3072074
:100E6000FFF73FFEE8B2FFF73CFE5520FFF739FEE3
:100E70005520FFF736FE5520FFF733FE5520FFF7CC
:100E800030FE70BD70B506460C461546B4F5C86F09
:100E900002DD4FF4C86403E014F5C86F00DA3B4C80
:100EA000002C04DA01DD204600E0604204B2482054
:100EB000FFF717FE3046FFF714FEC4F30720FFF7D5
:100EC00010FEE0B2FFF70DFE5520FFF70AFE552099
:100ED000FFF707FE280EFFF704FEC5F30740FFF7F4
:100EE00000FEC5F30720FFF7FCFDE8B2FFF7F9FDB0
:100EF00070BD2DE9F04107460C4615461E46B4F577
:100F0000C86F02DD4FF4C86403E014F5C86F00DA5F
:100F10001E4C002C04DA01DD204600E0604204B2E1
:100F2000B5F5FA6F02DD4FF4FA6503E015F5FA6FD7
:100F300000DA174D002D04DA01DD284600E0684292
:100F400005B24820FFF7CDFD3846FFF7CAFDC4F3D0
:100F50000720FFF7C6FDE0B2FFF7C3FDC5F307208A
:100F6000FFF7BFFDE8B2FFF7BCFD300EFFF7B9FD9C
:100F7000C6F30740FFF7B5FDC6F30720FFF7B1FD45
:100F8000F0B2FFF7AEFDBDE8F0810000C0F9FFFF51
:100F900030F8FFFF10B56FF0040000F06EF92E4836
:100FA00000682E49B0FBF1F02D4908700846007822
:100FB00000EB4001C1EBC0104FF6FF7101EAC00029
:100FC0002849088010BD0146254A12784A434FF04F
:100FD000E0235A6100229A611A46126942F0010226
:100FE0001A6100BF4FF0E022106900F001021AB14F
:100FF00000F48032002AF5D04FF0E022126922F08E
:1010000001024FF0E0231A6100229A617047014605
:10101000144A12884A434FF0E0235A6100229A6131
:101020001A46126942F001021A6100BF4FF0E02235
:10103000106900F001021AB100F48032002AF5D0E4
:101040004FF0E022126922F001024FF0E0231A6112
:1010500000229A61704700000400002000127A000C
:10106000180000201A000020014600BF704700BF92
:10107000474A128802F04002002AF9D0C2B2444B1B
:101080001B1D1A80704710B586B00446012144F23A
:10109000040000F02DFC4FF40070ADF814000320A4
:1010A0008DF8160018208DF8170005A9394800F0B2
:1010B00063F94FF48060ADF8140004208DF8170038
:1010C00005A9344800F058F925208DF800000320C8
:1010D0008DF801008DF8020001208DF803006846AC
:1010E00000F081F801940020ADF80800ADF80A0086
:1010F000ADF80C00ADF810000C20ADF80E0001A901
:10110000234800F09CFC012240F22551204800F0C9
:101110002EFD01211E4800F01EFD06B010BD10B5C9
:10112000044621461A4800F083FD00BF40211848BC
:1011300000F0ECFD0028F9D010BD10B5A0B040F2D1
:101140002551134800F0F8FDF8B17C221249684699
:1011500000F037FF104810380FC800F061FE30B1C2
:10116000FF20FFF7DCFFFF20FFF7D9FF08E008486A
:1011700000F062FDC4B221460748103800F037FE87
:1011800040F22551024800F001FE20B010BD0000E1
:101190000038014000080140500000200948804705
:1011A00009480047FEE7FEE7FEE7FEE7FEE7FEE749
:1011B000FEE7FEE7FEE7FEE704480549054A064B61
:1011C00070470000CF0800083101000830010020FE
:1011D0003007002030030020300300203149014354
:1011E000314A1160704770B5002100230F22C47886
:1011F00004B32D4C246804F4E064C4F5E064210ACF
:10120000C1F10403CA40447804FA03F1847814401D
:1012100021430901254C0678A155047804F01F05E7
:101220000124AC4005786D11AD0005F1E025C5F84D
:10123000004109E0047804F01F050124AC401C4D76
:101240000678761145F8264070BD1A4A0A400243D6
:10125000154B1B1F1A60704739B1134A121D1268D3
:101260000243114B1B1D1A6006E00F4A121D126843
:1012700082430D4B1B1D1A607047042808D14FF0A4
:10128000E021096941F004014FF0E022116107E01B
:101290004FF0E021096921F004014FF0E0221161D3
:1012A000704700000000FA050CED00E000E400E0EB
:1012B00080E100E080FFFF1F10B50446CC48844267
:1012C00008D10121042000F02DFB0021042000F0B2
:1012D00029FB46E0C748844208D10121082000F0DC
:1012E00021FB0021082000F01DFB3AE0C2488442A7
:1012F00008D10121102000F015FB0021102000F082
:1013000011FB2EE0BD48844208D10121202000F0CD
:1013100009FB0021202000F005FB22E0B8488442B0
:1013200008D10121402000F0FDFA0021402000F00A
:10133000F9FA16E0B348844208D10121802000F078
:10134000F1FA0021802000F0EDFA0AE0AE48844274
:1013500007D10121801500F0E5FA0021A01500F069
:10136000E1FA10BD10B50121084600F0DBFA0021BA
:10137000012000F0D7FA10BD2DE9F041024600250A
:101380000026002000230024002791F803C00CF061
:101390000F0591F803C00CF0100CBCF1000F03D046
:1013A00091F802C04CEA050591F800C0BCF1000FAD
:1013B00031D0146800202BE04FF0010C0CFA00F340
:1013C000B1F800C00CEA03069E4220D183004FF022
:1013D0000F0C0CFA03F7BC4305FA03FC4CEA0404B7
:1013E00091F803C0BCF1280F06D14FF0010C0CFAA4
:1013F00000FCC2F814C00AE091F803C0BCF1480F29
:1014000005D14FF0010C0CFA00FCC2F810C0401CD2
:101410000828D1D31460B1F800C0BCF1FF0F34DD4F
:10142000546800202EE000F1080C4FF0010808FA83
:101430000CF3B1F800C00CEA03069E4221D18300F0
:101440004FF00F0C0CFA03F7BC4305FA03FC4CEA0F
:10145000040491F803C0BCF1280F05D100F1080C79
:1014600008FA0CF8C2F8148091F803C0BCF1480FD8
:1014700007D100F1080C4FF0010808FA0CF8C2F887
:101480001080401C0828CED35460BDE8F0814FF690
:10149000FF710180022181700421C17070470246F2
:1014A000002093680B400BB1012000E00020704742
:1014B0000146886880B2704702460020D3680B401E
:1014C0000BB1012000E0002070470146C86880B2DF
:1014D000704701617047416170470AB1016100E0E6
:1014E00041617047C16070474FF480320A438261A6
:1014F0008161826182698269704702460020434BA4
:1015000018684FF68073184040EA021008433F4BBA
:10151000186070473E49C8617047F0B50A4600231D
:1015200000240021002500F00046B6F1004F02D152
:10153000364EF16901E0354E7168C0F3034583B260
:1015400000F44016B6F5401F08D121F070612F4E0F
:10155000766826F070662D4F7E6012E000F48016EB
:10156000B6F5801F06D1032606FA05F4A14341F023
:10157000706106E0460D360103FA06F6B14341F00C
:10158000706122B1460D360103FA06F6314300F0D0
:101590000046B6F1004F02D11C4EF16101E01B4E36
:1015A0007160F0BD30B500228B071C0F0F2303FACA
:1015B00004F2164B08338C1053F824309343134C29
:1015C00008348D1044F8253023468C1053F824300D
:1015D0008C07240F00FA04F423430C4C08348D10BC
:1015E00044F8253030BD0A49DC31086070470000FE
:1015F00000080140000C01400010014000140140AF
:1016000000180140001C0140002001400000014082
:1016100000002042DF48006840F00100DD4908601A
:1016200008464068DC490840DA49486008460068D6
:10163000DA490840D74908600846006820F480204D
:1016400008600846406820F4FE0048604FF41F0020
:1016500088607047CF49096821F48031CD4A116014
:101660001146096821F480211160B0F5803F03D054
:10167000B0F5802F0ED106E0C649096841F48031EB
:10168000C44A116007E0C349096841F4A021C14A76
:10169000116000E000BF00BF704710B50146002296
:1016A000002300204A11012A02D1BA4C236806E027
:1016B000022A02D1B74C236A01E0B64C636A01F0FA
:1016C0001F02012494401C400CB1012000E00020C6
:1016D00010BD38B5002000900024002500BF312047
:1016E000FFF7DBFF05460098401C00900098B0F51E
:1016F000A06F01D0002DF2D03120FFF7CEFF08B14E
:10170000012400E00024204638BD01460020A14A03
:10171000106820F0F80040EAC10010607047A0494E
:1017200008607047024600209A4B586820F47C10ED
:1017300042EA01031843974B58607047984908667E
:10174000704701460020934A506820F00300084388
:10175000506070478F48406800F00C0070470146A9
:1017600000208C4A506820F0F00008435060704719
:1017700001460020874A506820F4E060084350602A
:10178000704701460020834A506820F4605040EAC8
:10179000C1005060704729B17E4A527A02437D4BA6
:1017A0005A7204E07B4A527A82437A4B5A727047EB
:1017B0007B49D8310860704701460020754A50685F
:1017C00020F440400843506070470021714A2032A5
:1017D0001170704A82F82010012802D004280AD122
:1017E00004E001216B4A2032117005E00521694AAD
:1017F0002032117000E000BF00BF704769490860E7
:1018000070476449096A0143624A11627047654939
:1018100044390860704730B50021002200240023BD
:101820005C4D6D6805F00C0121B1042905D0082933
:1018300023D105E05C4D056022E05B4D05601FE0B3
:10184000544D6D6805F47012524D6D6805F4803486
:10185000022505EB92421CB9544D554305600BE03F
:101860004C4D6D6805F400351DB1504D5543056074
:1018700002E04D4D5543056002E04B4D056000BF51
:1018800000BF444D6D6805F0F0010909484D6B5CDF
:101890000568DD4045603F4D6D6805F4E061090A6B
:1018A000434D6B5C4568DD4085603A4D6D6805F4DD
:1018B0006051C90A3E4D6B5C4568DD40C560354DE1
:1018C0006D6805F44041890B3A4D6B5CC568B5FB0A
:1018D000F3F5056130BD29B12E4A526902432D4B03
:1018E0005A6104E02B4A526982432A4B5A6170477D
:1018F00029B1284A92690243264B9A6104E0254A9D
:1019000092698243234B9A61704729B1214AD26977
:101910000243204BDA6104E01E4AD26982431D4B28
:10192000DA61704729B11B4AD2680243194BDA6069
:1019300004E0184AD2688243164BDA60704729B136
:10194000144A12690243134B1A6104E0114A1269E6
:101950008243104B1A617047124940390860704742
:101960000F49C86470470B49C87170470948406AFD
:1019700040F0807007494862704701460020054AE0
:1019800092680A400AB1012000E000207047014936
:1019900088727047001002400000FFF8FFFFF6FE5B
:1019A000000042428004424200127A0000093D00D9
:1019B0001C0000202C00002010B50446FB48844287
:1019C00009D101218803FFF7ADFF00214FF48040CA
:1019D000FFF7A8FF32E0F648844209D1012148040C
:1019E000FFF7ADFF00214FF40030FFF7A8FF25E01F
:1019F000F048844209D101218804FFF7A0FF0021AB
:101A00004FF48020FFF79BFF18E0EB48844209D198
:101A10000121C804FFF793FF00214FF40020FFF7D6
:101A20008EFF0BE0E548844208D101210805FFF74D
:101A300086FF00214FF48010FFF781FF10BD2DE9D4
:101A4000F04786B005460E460024A24600BFA146D8
:101A50000027B08900B100BF2F462C8A4CF6FF70DA
:101A60000440F08804432C82AC894EF6F310044005
:101A7000B08831890843718908430443AC81AC8A3A
:101A80004FF6FF400440B0890443AC8201A8FFF741
:101A9000C2FEC648874202D1DDF810A001E0DDF8A1
:101AA0000CA0A88900F4004040B10AEBCA0000EB8A
:101AB0000A1031684900B0FBF1F807E00AEBCA00F0
:101AC00000EB0A1031688900B0FBF1F86420B8FB24
:101AD000F0F004012009642101FB1089A88900F4B9
:101AE000004040B1322000EBC900B0FBF1F000F043
:101AF0000700044308E0322000EB09106421B0FB2A
:101B0000F1F000F00F0004432C8106B0BDE8F0872F
:101B10004FF41651016000218180C18001810C21A8
:101B2000418100218181704710B502460020108A52
:101B30004FF2FF0318400B884C8823438C882343C3
:101B4000CC8823431843108210BD002101804180BE
:101B50008180C180704721B1828942F40052828124
:101B600004E082894DF6FF731A4082817047F0B518
:101B70000346002400260025002040F66A17B942DB
:101B800000D100BF1846C1F3421401F01F0601271F
:101B900007FA06F5012C01D10C3004E0022C01D12A
:101BA000103000E014301AB107682F43076002E0DC
:101BB0000768AF430760F0BD1AB1838A0B43838285
:101BC00002E0838A8B4383827047028A4FF6F07368
:101BD0001A400282028A0A430282704782894FF2C7
:101BE000FF731A40828182890A438281704721B142
:101BF000828942F00202828104E082894FF6FD73FD
:101C00001A4082817047028A4FF6DF731A400282BF
:101C1000028A0A430282704721B1028A42F480425A
:101C2000028204E0028A4BF6FF731A400282704778
:101C3000C1F308028280704701468888C0F308001B
:101C40007047818941F0010181817047028BD2B2D6
:101C50000283028B42EA012202837047028B02F464
:101C60007F420283028B0A430283704721B1828A3A
:101C700042F02002828204E0828A4FF6DF731A402B
:101C80008282704721B1828A42F01002828204E08F
:101C9000828A4FF6EF731A408282704721B1828A9E
:101CA00042F00802828204E0828A4FF6F7731A40FB
:101CB0008282704721B1828942F40042828103E02E
:101CC0008289C2F30E028281704721B1828A42F476
:101CD0000062828204E0828A4FF2FF731A4082829D
:101CE0007047828A4FF6FB731A408282828A0A43C7
:101CF0008282704721B1828A42F00202828204E02D
:101D0000828A4FF6FD731A40828270470246002095
:101D1000B1F5007F00D100BF13880B400BB101204B
:101D200000E00020704701F40072B2F5007F00D19E
:101D300000BFCA430280704770B5024600240023EA
:101D40000025002040F66A16B14200D100BFC1F361
:101D5000421501F01F03012606FA03F3012D02D1FB
:101D60009689334006E0022D02D1168A334001E005
:101D7000968A33400C12012606FA04F41688344081
:101D800013B10CB1012000E0002070BD10B500229D
:101D9000002340F66A14A14200D100BF0A120124B8
:101DA0009440A3B2DC43048010BD00000038014021
:101DB0000044004000480040004C004000500040FB
:101DC00010B504468C21204600F02DF910BD10B549
:101DD0000146D1F88420885CD1F88420521C8123EC
:101DE00092FBF3F403FB1422C1F8842010BD10B55C
:101DF000D0F888208154D0F88820521C812392FB8F
:101E0000F3F403FB1422C0F8882010BD0FB421980E
:101E10002299884202D1012004B070470020FBE7DC
:101E20000FB42298401C812190FBF1F201FB1200BB
:101E30002199884202D1012004B070470020FBE7BD
:101E400010B504464FF08041204600F0E9F902D277
:101E50004FF0804010BD4FF04041204600F066F941
:101E600002D24FF04040F5E72046F3E71FB50446A5
:101E700020788DF80C0060788DF80D00A0788DF832
:101E80000E00E0788DF80F002548039901600146A7
:101E90000868FFF7D5FF2249086020798DF808000F
:101EA00060798DF80900A0798DF80A00E0798DF845
:101EB0000B0008460299416001464868FFF7C0FFE1
:101EC00017494860207A8DF80400607A8DF8050083
:101ED000A07A8DF80600E07A8DF80700084601998F
:101EE000816001468868FFF7ABFF0D498860207B61
:101EF0008DF80000607B8DF80100A07B8DF802005A
:101F0000E07B8DF8030008460099C1600146C8686F
:101F1000FFF796FF0249C86000F015F81FBD0000EA
:101F20003000002010B50020FEF7E9FD4FF4FA70F4
:101F3000FFF76DF803210120FEF702FE4FF4FA705F
:101F4000FFF765F810BD10B51C49086800F0D2F81D
:101F500084B222B241F288311420FEF780FE0A20BA
:101F6000FFF755F81549486800F0C4F884B222B26A
:101F700041F288312420FEF772FE0A20FFF747F86D
:101F80000E49886800F0B6F884B222B241F2883176
:101F90003420FEF764FE0A20FFF739F80749C868C5
:101FA00000F0A8F884B222B241F288314420FEF752
:101FB00056FE0A20FFF72BF810BD0000300000206D
:101FC000704710B5203AC0F00B80B1E81850203AA5
:101FD000A0E81850B1E81850A0E81850BFF4F5AFC9
:101FE0005FEA027C24BFB1E81850A0E8185044BF53
:101FF00018C918C0BDE810405FEA827C24BF51F8C0
:10200000043B40F8043B08BF7047D20728BF31F8B3
:10201000023B48BF11F8012B28BF20F8023B48BF04
:1020200000F8012B70474FF0000200B513469446AC
:102030009646203922BFA0E80C50A0E80C50B1F120
:102040002001BFF4F7AF090728BFA0E80C5048BF34
:102050000CC05DF804EB890028BF40F8042B08BFD2
:10206000704748BF20F8022B11F0804F18BF00F8CE
:10207000012B70477047704770477047754600F0F6
:1020800029F8AE4605006946534620F0070085460C
:1020900018B020B5FFF790F8BDE820404FF00006DB
:1020A0004FF000074FF000084FF0000B21F0070140
:1020B000AC46ACE8C009ACE8C009ACE8C009ACE883
:1020C000C0098D4670470446AFF300802046FEF7F6
:1020D00076F8000000487047CC000020401058BF40
:1020E000C0F14040491058BFC1F140418142EFF377
:1020F0000080704741000B0ED3F19E0208D950F4C6
:1021000000034FEA032323FA02F048BF404270471E
:1021100010B500F03FF800BF4992248000207047BE
:102120006FF0004282EA20007047000050EA010C84
:1021300000F113801CF5000F58BFBCF5000F01D44F
:102140008842704707D710F5000F58BF11F5000FF0
:1021500015D488427047894270471CF5000F04D59A
:10216000BCF5000FF7D5814270474FF0807C1CEB27
:10217000400F38BF1CEB410F01D28142704710B5B0
:1021800000F008F8922449004FF000504FF08051C1
:10219000FFF7A4BF0EF1020E2EF0030E5EF8044B03
:1021A000244204D44FEA4102B2F17F4F11D84FEAE2
:1021B0004003B3F17F4F0CD80ED14FEAD07CB2F17F
:1021C0007F4F0CEB4C0C0CF1020C08BF4CEBD17C9C
:1021D00004E04FF0080C01E04FEAD17C0CEB4C031B
:1021E00024FA03F404F00704B4F1040C06D20EEB55
:1021F000840CBDE810404CF0010C6047DFE80CF0A7
:10220000070802024FF00040A0F5800010BD08460C
:10221000420018BFD2F1807288BF00F0004010BDAC
:1022200051EA000C00F113801CF5000F58BFBCF5FB
:10223000000F01D48142704707D711F5000F58BF36
:1022400010F5000F15D481427047894270471CF584
:10225000000F04D5BCF5000FF7D5884270474FF04A
:10226000807C1CEB410F38BF1CEB400F01D2884231
:10227000704780EA010081EA000180EA0100FFF76F
:102280007EBF0000A42200080000002030000000F3
:102290006C010008D4220008300000200007000074
:1022A000880100080000000000A24A0400000000AD
:1022B00000000000010203040607080900000000F6
:1022C00000000000010203040102030406070809DC
:0422D00002040608F6
:0400000508000131BD
:00000001FF
