:020000040800F2
:1000000008090020CD01000855060008FF0500087A
:100010005106000847030008732000080000000094
:10002000000000000000000000000000350800088B
:100030004B03000800000000DD060008690B000803
:10004000E7010008E7010008E7010008E7010008F0
:10005000E7010008E7010008E7010008E7010008E0
:10006000E7010008E7010008E7010008E7010008D0
:10007000E7010008E7010008E7010008E7010008C0
:10008000E7010008E7010008E7010008E7010008B0
:10009000E7010008E7010008E7010008E7010008A0
:1000A000E7010008E7010008E7010008E701000890
:1000B000F116000825170008D9170008E701000805
:1000C000E7010008E7010008E7010008E701000870
:1000D000E7010008651C0008E11C0008591E000823
:1000E000E7010008E7010008E7010008E701000850
:1000F000E7010008E7010008E7010008E701000840
:10010000E7010008E7010008E7010008E70100082F
:10011000E7010008E7010008E7010008E70100081F
:10012000E7010008E7010008E7010008E70100080F
:1001300000F002F800F03AF80AA090E8000C8244BF
:100140008344AAF10107DA4501D100F02FF8AFF29C
:10015000090EBAE80F0013F0010F18BFFB1A43F0A5
:10016000010318474455000064550000103A24BFAD
:1001700078C878C1FAD8520724BF30C830C144BF0C
:1001800004680C607047000000230024002500264E
:10019000103A28BF78C1FBD8520728BF30C148BFEA
:1001A0000B6070471FB51FBD10B510BD00F0A0F863
:1001B0001146FFF7F7FF02F08BFC00F0BEF803B426
:1001C000FFF7F2FF03BC02F09BFA000009488047EA
:1001D00009480047FEE7FEE7FEE7FEE7FEE7FEE729
:1001E000FEE7FEE7FEE7FEE704480549054A064B41
:1001F000704700006D0B0008310100080803002063
:10020000080900200805002008050020704710B5E7
:10021000203AC0F00B80B1E81850203AA0E81850FE
:10022000B1E81850A0E81850BFF4F5AF5FEA027CBF
:1002300024BFB1E81850A0E8185044BF18C918C02E
:10024000BDE810405FEA827C24BF51F8043B40F8CF
:10025000043B08BF7047D20728BF31F8023B48BFB4
:1002600011F8012B28BF20F8023B48BF00F8012BF2
:1002700070474FF0000200B5134694469646203969
:1002800022BFA0E80C50A0E80C50B1F12001BFF44F
:10029000F7AF090728BFA0E80C5048BF0CC05DF8B5
:1002A00004EB890028BF40F8042B08BF704748BF03
:1002B00020F8022B11F0804F18BF00F8012B704777
:1002C000704770477047704710B500F009F8006834
:1002D00010BD10B5044600F003F8046010BD000026
:1002E00000487047A802002000487047A80200207C
:1002F0007546FFF7F9FFAE4605006946534620F004
:100300000700854618B020B5FFF76EFFBDE8204016
:100310004FF000064FF000074FF000084FF0000BC1
:1003200021F00701AC46ACE8C009ACE8C009ACE874
:10033000C009ACE8C0098D4670470446AFF30080A1
:100340002046FFF73CFF00BFFEE7704700B589B0CD
:100350000121084600F0E4F90121084600F0C0F947
:100360000121042000F0BCF90121042000F0D8F99B
:100370000121082000F0D4F908A800F038F9032082
:10038000ADF8200048208DF8230008A94E4800F061
:10039000A1F808A800F02BF9C020ADF820004820F3
:1003A0008DF8230008A9494800F094F84FF4A060A4
:1003B00000F08AF91C208DF81C0001208DF81D002A
:1003C0008DF81E008DF81F0007A800F045F94FF4C6
:1003D000A06000F079F91E208DF81C0001208DF836
:1003E0001D008DF81E008DF81F0007A800F034F9DD
:1003F0004FF0804001F01CFA04A801F029FC032012
:10040000ADF8100040F2CF70ADF814000020ADF848
:100410001600ADF8120004A94FF0804001F0C6FBB1
:1004200000231A4603214FF0804001F0F5FA01A89D
:1004300001F07EFB0120ADF80C0001A9800701F05E
:1004400021FB234801F0F4F904A801F001FC03208A
:10045000ADF8100040F2CF70ADF814000020ADF8F8
:100460001600ADF8120004A9194801F09FFB002303
:100470001A460321164801F0CFFA01A801F058FBF3
:100480000120ADF80C0001A9114801F0FBFA01218F
:10049000880701F0BBF901210D4801F0B7F90122ED
:1004A0001146900701F04DFB01221146084801F06A
:1004B00048FB0121880701F0AFF90121044801F050
:1004C000ABF909B000BD000000080140000C01407C
:1004D000000800402DE9F0410246002500260020DA
:1004E00000230024002791F803C00CF00F0591F8B9
:1004F00003C00CF0100CBCF1000F03D091F802C047
:100500004CEA050591F800C0BCF1000F31D0146829
:1005100000202BE04FF0010C0CFA00F3B1F800C002
:100520000CEA03069E4220D183004FF00F0C0CFA18
:1005300003F7BC4305FA03FC4CEA040491F803C03A
:10054000BCF1280F06D14FF0010C0CFA00FCC2F8E8
:1005500014C00AE091F803C0BCF1480F05D14FF078
:10056000010C0CFA00FCC2F810C0401C0828D1D3C2
:100570001460B1F800C0BCF1FF0F34DD54680020F6
:100580002EE000F1080C4FF0010808FA0CF3B1F866
:1005900000C00CEA03069E4221D183004FF00F0CED
:1005A0000CFA03F7BC4305FA03FC4CEA040491F887
:1005B00003C0BCF1280F05D100F1080C08FA0CF8B3
:1005C000C2F8148091F803C0BCF1480F07D100F1C4
:1005D000080C4FF0010808FA0CF8C2F81080401C13
:1005E0000828CED35460BDE8F081016170474FF612
:1005F000FF710180022181700421C170704700BF2A
:10060000FEE7000008B50121482000F089F820200D
:10061000ADF8000010208DF8030003208DF80200D3
:1006200069460948FFF756FF20210748FFF7DDFF1D
:100630002020ADF8000069460448FFF74BFF202159
:100640000248FFF7D2FF08BD000C0140001801402E
:1006500000BFFEE77047000070B5002100230F22A5
:10066000C47804B3154C246804F4E064C4F5E06471
:10067000210AC1F10403CA40447804FA03F18478E2
:100680001440214309010E4C0678A155047804F06A
:100690001F050124AC4005786D11AD0005F1E02582
:1006A000C5F8004109E0047804F01F050124AC40BE
:1006B000044D0678761145F8264070BD0CED00E03B
:1006C00000E400E080E100E002490143024A1160D9
:1006D000704700000000FA050CED00E070470000D4
:1006E00029B1064AD2690243044BDA6104E0034AA5
:1006F000D2698243014BDA6170470000001002406A
:1007000029B1064A12690243044B1A6104E0034A04
:1007100012698243014B1A617047000000100240C9
:1007200029B1064A92690243044B9A6104E0034AE4
:1007300092698243014B9A617047000000100240A9
:1007400029B1064AD2680243044BDA6004E0034A46
:10075000D2688243014BDA6070470000001002400B
:1007600030B500210022002400232D4D6D6805F0D6
:100770000C0121B1042905D0082923D105E0294D18
:10078000056022E0274D05601FE0254D6D6805F4EA
:100790007012234D6D6805F48034022505EB9242FA
:1007A0001CB9214D554305600BE01D4D6D6805F4E6
:1007B00000351DB11C4D5543056002E0194D5543F0
:1007C000056002E0174D056000BF00BF144D6D6865
:1007D00005F0F0010909154D6B5C0568DD404560C9
:1007E0000F4D6D6805F4E061090A104D6B5C4568BA
:1007F000DD4085600A4D6D6805F46051C90A0B4DF6
:100800006B5C4568DD40C560054D6D6805F4404191
:10081000890B074D6B5CC568B5FBF3F5056130BD11
:100820000010024000127A0000093D001C00002068
:100830002C000020704710B500F002F810BD000039
:100840000CB50020019000903348006840F48030DF
:100850003149086000BF3048006800F40030009063
:100860000198401C0190009818B90198B0F5A06F4C
:10087000F1D12948006800F4003010B10120009047
:1008800001E0002000900098012843D1234800682F
:1008900040F01000214908600846006820F003007D
:1008A00008600846006840F0020008601A48406886
:1008B000194948600846406848600846406840F466
:1008C000806048600846406820F47C104860084614
:1008D000406840F4E81048600846006840F08070C6
:1008E000086000BF0C48006800F000700028F9D0D4
:1008F0000948406820F003000749486008464068FE
:1009000040F00200486000BF0348406800F00C005F
:100910000828F9D10CBD0000001002400020024060
:100920002DE9F04F8FB03E49C86A04F04BFBCDE98A
:1009300008013B49086B04F045FBCDE90A01384941
:10094000486B04F03FFBCDE90C013549486F04F0DA
:1009500039FB0646334A344B03F03EFD044622463B
:100960000B46694608A800F031F9304A304BDDE902
:100970000061304603F0ECFD82462E4A2E4B04F017
:1009800011F8804600222D4B03F0E2FD044603F0EF
:10099000F1FC23490861254A254BDDE90261304617
:1009A00003F0D6FD0446234A234B03F0FBFF8246A7
:1009B0000022224B03F0CCFD804603F0DBFC1849FB
:1009C00048611A4A1A4BDDE90461304603F0C0FD64
:1009D0000446184A184B03F0E5FF80460022174BE7
:1009E00003F0B6FD824603F0C5FC0D4988610F4A4D
:1009F0000F4BDDE90661304603F0AAFD82460D4A41
:100A00000D4B03F0CFFF044600220C4B03F0A0FD7A
:100A1000804603F0AFFC0249C8610FB0BDE8F08F1B
:100A20004000002038E92F54FB21F93FE926310826
:100A3000AC1CAA3F70DB7A1ADCA54C4000001840C1
:100A40002DE9F04F8FB03849886B04F0BBFACDE93F
:100A500008013549C86B04F0B5FACDE90A013249FD
:100A6000086C04F0AFFACDE90C01694608A800F063
:100A7000CDFB2E4A2E4BDDE90061304603F068FDC8
:100A800082462C4A2C4B03F08DFF804600222B4BD4
:100A900003F05EFD044603F06DFC23490861234A20
:100AA000234BDDE90261304603F052FD8046214AC6
:100AB000214B03F077FF04460022204B03F048FD52
:100AC000824603F057FC18494861184A184BDDE983
:100AD0000461304603F03CFD0446164A164B03F011
:100AE00061FF80460022154B03F032FD824603F081
:100AF00041FC0D4988610D4A0D4BDDE90661304628
:100B000003F026FD80460B4A0B4B03F04BFF0446D7
:100B100000220A4B03F01CFD824603F02BFC024925
:100B2000C8610FB0BDE8F08F40000020E926310811
:100B3000AC1CAA3F70DB7A1ADCA54C4000001840C0
:100B4000042808D14FF0E021096941F004014FF079
:100B5000E022116107E04FF0E021096921F0040172
:100B60004FF0E022116170477047000010B5134844
:100B7000006840F0010011490860084640681049CB
:100B800008400E494860084600680E4908400B4975
:100B900008600846006820F4802008600846406825
:100BA00020F4FE0048604FF41F008860FFF743FE0A
:100BB0004FF000600449086010BD000000100240C2
:100BC0000000FFF8FFFFF6FE08ED00E01FB594B04F
:100BD000DDE9160103F0A2F90022FE4BCDE9060182
:100BE00010464FF0804102F0A5FBCDE90401DDE99C
:100BF000062303F0D7FE00224FF08043CDE9080121
:100C000003F0A6FCCDE90C01DDE9160101F08CFE34
:100C10000022F04BCDE9060110464FF0804102F072
:100C200089FBCDE90401DDE9062303F0BBFE0022C8
:100C30004FF08043CDE9080103F08AFCCDE90A01B9
:100C4000DDE90C2304F0D4F8CDE90E011499D1E9C3
:100C50000201CDE90C01DDE90E2303F0A3FECDE98D
:100C60001201DDE9160103F059F90022D94BCDE953
:100C7000020110464FF0804102F05CFBCDE900011B
:100C8000DDE9022303F08EFE00224FF08043CDE920
:100C9000040103F05DFCCDE90801DDE9160101F076
:100CA00043FE0022CB4BCDE9020110464FF08041BC
:100CB00002F040FBCDE90001DDE9022303F072FE02
:100CC00000224FF08043CDE9040103F041FCCDE95F
:100CD0000601DDE9082303F07FFBCDE90A01149941
:100CE00003C9CDE90801DDE90A2303F05BFECDE984
:100CF0000E011499D1E9040102460B46CDE90A011F
:100D00000020B54903F04EFECDE90C01DDE90E23CC
:100D100004F06EF8CDE91001DDE9122303F05CFB6D
:100D2000159A03C2DDE9160103F0F8F80022A94B79
:100D3000CDE9060110464FF0804102F0FBFACDE903
:100D40000401DDE9062303F02DFE00224FF080436D
:100D5000CDE9080103F0FCFBCDE90C01DDE916014A
:100D600001F0E2FD00229B4BCDE9060110464FF059
:100D7000804102F0DFFACDE90401DDE9062303F04A
:100D800011FE00224FF08043CDE9080103F0E0FBA3
:100D9000CDE90A01DDE90C2303F01EFBCDE90E01CC
:100DA0001498D0E902120846CDE90C020A46DDE9A2
:100DB0000D300F9903F0F6FDCDE91201DDE91601C2
:100DC00003F0ACF80022834BCDE9020110464FF04E
:100DD000804102F0AFFACDE90001DDE9022303F022
:100DE000E1FD00224FF08043CDE9040103F0B0FBA8
:100DF000CDE90801DDE9160101F096FD0022754BF1
:100E0000CDE9020110464FF0804102F093FACDE99E
:100E10000001DDE9022303F0C5FD00224FF080430D
:100E2000CDE9040103F094FBCDE90601DDE90823D7
:100E300003F0DEFFCDE90A01149903C9CDE90801E9
:100E4000DDE90A2303F0AEFDCDE90E011499D1E9E5
:100E5000040102460B46CDE90A0100205E4903F079
:100E6000A1FDCDE90C01DDE90E2303F0C1FFCDE9C1
:100E70001001DDE9122303F0BBFF159AC2E902015C
:100E8000DDE9160103F04AF80022524BCDE90601D4
:100E900010464FF0804102F04DFACDE90401DDE942
:100EA000062303F07FFD00224FF08043CDE90801C7
:100EB00003F04EFBCDE90C01DDE9160101F034FD34
:100EC0000022444BCDE9060110464FF0804102F06C
:100ED00031FACDE90401DDE9062303F063FD0022C8
:100EE0004FF08043CDE9080103F032FBCDE90A0160
:100EF000DDE90C2303F07CFFCDE90E011498C168F5
:100F00008068CDE90C01DDE90E2303F04BFDCDE94E
:100F10001201DDE9160103F001F800222D4BCDE9A5
:100F2000020110464FF0804102F004FACDE90001C1
:100F3000DDE9022303F036FD00224FF08043CDE9C6
:100F4000040103F005FBCDE90801DDE9160101F01C
:100F5000EBFC00221F4BCDE9020110464FF080410F
:100F600002F0E8F9CDE90001DDE9022303F01AFD02
:100F700000224FF08043CDE9040103F0E9FACDE906
:100F80000601DDE9082303F027FACDE90A011499E7
:100F900003C9CDE90801DDE90A2303F003FDCDE92A
:100FA0000E011498D0E904120846CDE90A020A4657
:100FB000002009490B9B03F0F5FCCDE90C01DDE9AC
:100FC0000E2303F009FACDE91001DDE9122303F045
:100FD0000FFF03E00000E03F00002440159AC2E943
:100FE0000401DDE9160102F099FF0022554BCDE91D
:100FF000060110464FF0804102F09CF9CDE9040152
:10100000DDE9062303F0CEFC00224FF08043CDE95A
:10101000080103F09DFACDE90C01DDE9160101F0AC
:1010200083FC0022474BCDE9060110464FF080417A
:1010300002F080F9CDE90401DDE9062303F0B2FCFA
:1010400000224FF08043CDE9080103F081FACDE999
:101050000A01DDE90C2303F0BFF9CDE90E01149874
:10106000D0E902120846CDE90C020A46DDE90D304E
:101070000F9903F097FCCDE91201DDE9160102F0AA
:101080004DFF00222F4BCDE9020110464FF0804169
:1010900002F050F9CDE90001DDE9022303F082FC02
:1010A00000224FF08043CDE9040103F051FACDE96D
:1010B0000801DDE9160101F037FC0022214BCDE9E2
:1010C000020110464FF0804102F034F9CDE90001F1
:1010D000DDE9022303F066FC00224FF08043CDE9F6
:1010E000040103F035FACDE90601DDE9082303F038
:1010F0007FFECDE90A01149903C9CDE90801DDE9B4
:101100000A2303F04FFCCDE90E011499D1E9040143
:1011100002460B46CDE90A0100200B4903F042FCD0
:10112000CDE90C01DDE90E2303F056F9CDE91001FC
:10113000DDE9122303F050F9159AC2E9060118B04F
:1011400010BD00000000E03F000024402DE9FC41FC
:1011500004460D461646E11704EB1171C1F3071161
:101160008DF80010E11704EB11710911A4EB0111C6
:10117000C9B28DF80110E91705EB1171C1F3071120
:101180008DF80210E91705EB11710911A5EB01119A
:10119000C9B28DF80310F11706EB1171C1F30711F5
:1011A0008DF80410F11706EB11710911A6EB01116E
:1011B000C9B28DF805109DF8011042F2107251432A
:1011C0009DF8022002EB4203C3EBC21201EBC20105
:1011D0009DF8032002EBC20303EB021201EB820134
:1011E0009DF8042002EB820201EB42019DF80520EC
:1011F000881803F0E1FF8046034903F01BFF074610
:101200003846BDE8FC8100000000C8422DE9F04FDF
:1012100089B00446894600227F4B10464FF080413A
:1012200002F088F88246D4E902532A4603F0BAFB5A
:10123000074600224FF0804303F08AF90022764BE4
:10124000CDE9060110464FF0804102F073F80546E3
:10125000D4E900733A4603F0A5FB00224FF0804327
:10126000CDE9000103F074F982468B46D4E90453BA
:101270002A460020694903F095FB52465B46CDE9BA
:10128000020103F0B5FDCDE90401DDE9062303F019
:10129000A3F8C9E9000100225F4B10464FF08041DE
:1012A00002F048F80746D4E902532A4603F07AFBD5
:1012B000824600224FF0804303F04AF90022564B49
:1012C000CDE9060110464FF0804102F033F80746A1
:1012D000D4E900532A4603F065FB824600224FF012
:1012E000804303F035F9CDE90201D4E904532A46DD
:1012F00000204A4903F056FBCDE90001DDE9022355
:1013000003F076FDCDE90401DDE9062303F070FD6D
:10131000C9E902010022404B10464FF0804102F023
:1013200009F88246D4E902532A4603F03BFB0746FC
:1013300000224FF0804303F00BF90022364BCDE939
:10134000060110464FF0804101F0F4FFCDE90001A5
:10135000D4E900532A4603F025FB00224FF08043D6
:10136000CDE9020103F0F4F807468846D4E90453B6
:101370002A460020294903F015FB82463A46434697
:1013800003F02AF8CDE90401DDE9062303F030FD7E
:10139000C9E904010022204B10464FF0804101F0C2
:1013A000C9FF0746D4E902532A4603F0FBFA8246F6
:1013B00000224FF0804303F0CBF80022164BCDE91A
:1013C000060110464FF0804101F0B4FF0746D4E912
:1013D00000532A4603F0E6FA824600224FF080438B
:1013E00003F0B6F8CDE90201D4E904532A460020FF
:1013F0000A4903F0D7FACDE90001DDE9022302F042
:10140000EBFFCDE90401DDE9062302F0E5FFC9E9C0
:10141000060109B0BDE8F08F0000E03F0000244065
:101420002DE9FF5F0446894615461E46284631468B
:1014300002F074FD8246D4E902733A4603F0B2FA30
:10144000CDE902012846314601F06EFA8246D4E920
:1014500000733A4603F0A6FACDE90001DDE9022364
:1014600002F0BAFFC9E900012846314602F056FDF4
:101470008246D4E902733A4603F094FACDE90201B8
:101480002846314601F050FA07460B46D4E902A13E
:1014900081F000413A46504603F084FACDE900015C
:1014A000DDE9022302F098FFC9E90201BDE8FF9FD0
:1014B000F0B50C46154600220021068C4FF6FE774B
:1014C0003E400684028B018C4FF60C7632407E1C27
:1014D00006EA03162E433243104EB0420ED0104E91
:1014E000B0420BD0B0F1804F08D00E4EB04205D0C4
:1014F0000D4EB04202D00D4EB04206D14FF6FD76F1
:10150000314044F00106314305E04FF6F5763140B5
:1015100044F00106314302830184F0BD002C0140F8
:10152000003401400004004000080040000C00406E
:10153000F0B50C461546002200210026078C4FF618
:10154000EF7C07EA0C070784028B018C4FF6FF77CC
:1015500007EA041640F6FF473A404FF6FF7707EADE
:1015600003373A434FF6FF7707EA05273A43114F0F
:10157000B8420ED0104FB8420BD0B0F1804F08D017
:101580000E4FB84205D00E4FB84202D00D4FB842B0
:1015900006D14FF6DF77394046F01007394305E0B2
:1015A0004FF65F77394044F01007394302830184D6
:1015B000F0BD0000002C0140003401400004004058
:1015C00000080040000C0040F0B50C461546002213
:1015D00000210026078C4FF6FF6C07EA0C070784F2
:1015E000828B018C4FF6FF7707EA04264FF60C77C3
:1015F0003A404FF6FF7707EA03172F433A43114F5C
:10160000B8420ED0104FB8420BD0B0F1804F08D086
:101610000E4FB84205D00E4FB84202D00D4FB8421F
:1016200006D14FF6FF57394046F48077394305E03D
:101630004FF2FF57394044F4807739438283018465
:10164000F0BD0000002C01400034014000040040C7
:1016500000080040000C0040F0B50C461546002282
:1016600000210026078C4EF6FF7C07EA0C07078452
:10167000828B018C4FF6FF7707EA043640F6FF476E
:101680003A404FF6FF7707EA05273A434FF6FF77D0
:1016900007EA03373A43114FB8420ED0104FB84211
:1016A0000BD0B0F1804F08D00E4FB84205D00E4F8E
:1016B000B84202D00D4FB84206D14DF6FF773940FF
:1016C00046F48057394305E047F6FF57394044F464
:1016D0008057394382830184F0BD0000002C014013
:1016E000003401400004004000080040000C0040AD
:1016F00010B50121880700F089F84FF0804000887C
:1017000000F0100028B90648406E401C04494866A5
:1017100004E00348406E401E0149486610BD0000C9
:101720004000002010B50121104800F099F9D8B10F
:101730000F480078401C0E49087001210B4800F04A
:1017400068F80B48007809280AD10A48006808B9E7
:10175000012000E0002007490860002004490870CB
:1017600002F070FB01F0B0FC10BD0000000400406E
:1017700030000020940123427FB505460C4601212C
:101780000220FEF7ADFFADF80850ADF80440002090
:10179000ADF80A00ADF8060001A90E4800F006FAFF
:1017A000012211460B4800F0CCF91D208DF80000F5
:1017B00000208DF8010003208DF8020001208DF833
:1017C00003006846FEF748FF0121024800F024F8B4
:1017D0007FBD00000004004010B50121094800F061
:1017E00015F80848008800F0100028B90648806EF7
:1017F000401C0549886604E00348806E401E02498B
:10180000886610BD0008004040000020CA430282E4
:101810007047CA430282704721B1028842F0010238
:10182000028004E002884FF6FE731A40028070477F
:1018300010B504466848844208D10121C014FEF75F
:101840007FFF0021E014FEF77BFFC4E0B4F1804F7E
:1018500008D101210846FEF753FF00210120FEF7C1
:101860004FFFB8E05D48844208D101210220FEF715
:1018700047FF00210220FEF743FFACE058488442B6
:1018800008D101210420FEF73BFF00210420FEF7D0
:1018900037FFA0E05348844208D101210820FEF719
:1018A0002FFF00210820FEF72BFF94E04E488442D2
:1018B00008D101211020FEF723FF00211020FEF7A0
:1018C0001FFF88E04948844208D101212020FEF70B
:1018D00017FF00212020FEF713FF7CE044488442DC
:1018E00008D101214014FEF72BFF00216014FEF700
:1018F00027FF70E03F48844209D10121C804FEF768
:101900001FFF00214FF40020FEF71AFF63E03A4862
:10191000844209D101210805FEF712FF00214FF48E
:101920008010FEF70DFF56E03448844209D10121B2
:101930004805FEF705FF00214FF40010FEF700FFF9
:1019400049E02F48844208D101214020FEF7D8FE0B
:1019500000214020FEF7D4FE3DE02A48844208D111
:1019600001218020FEF7CCFE00218020FEF7C8FE7A
:1019700031E02548844208D101218015FEF7C0FEE0
:101980000021A015FEF7BCFE25E02048844209D1C5
:1019900001210804FEF7D4FE00214FF48030FEF749
:1019A000CFFE18E01A48844209D101214804FEF70D
:1019B000C7FE00214FF40030FEF7C2FE0BE01548D1
:1019C000844208D101218804FEF7BAFE00214FF4B9
:1019D0008020FEF7B5FE10BD002C01400004004041
:1019E00000080040000C00400010004000140040BF
:1019F00000340140004C01400050014000540140BF
:101A000000180040001C0040002000400040014041
:101A10000044014000480140F0B50C4615461E4602
:101A20000021002200230189028B038C4FF6F877F6
:101A3000394021434FF6FC473A4040F201173A4300
:101A40004FF6DD773B404FF6FF7707EA06172F4347
:101A50003B43018102830384F0BD0146888C7047BB
:101A600030B50246002000230024158A05EA010350
:101A7000958905EA010413B10CB1012000E00020B2
:101A800030BD000070B505460C46244885420ED096
:101A9000234885420BD0B5F1804F08D021488542BC
:101AA00005D02148854202D02048854200D100E07F
:101AB00000BF208850B92389A28861882846FFF793
:101AC000F7FCE188284600F045F825E02088042846
:101AD0000AD12389A28861882846FFF729FDE18879
:101AE000284600F040F817E0208808280AD123890A
:101AF000A28861882846FFF767FDE188284600F044
:101B00003FF809E02389A28861882846FFF7A4FDF1
:101B1000E188284600F03DF870BD0000002C01402F
:101B2000003401400004004000080040000C004068
:101B3000002101804180012181800021C18001813B
:101B400070471AB183890B43838102E083898B43F9
:101B500083817047028B4FF6F3731A400283028B26
:101B60000A4302837047028B4FF2FF331A4002830D
:101B7000028B4FF6FF7303EA01231A430283704777
:101B8000828B4FF6F3731A408283828B0A438283DF
:101B90007047828B4FF2FF331A408283828B4FF65D
:101BA000FF7303EA01231A438283704700220288ED
:101BB0001D4B98420ED01D4B98420BD0B0F1804F78
:101BC00008D01B4B984205D01A4B984202D01A4BB2
:101BD000984204D14FF68F731A404B881A43174B23
:101BE000984207D0164B984204D04FF6FF431A4054
:101BF000CB881A4302808B8883850B8803850A4B28
:101C000098420BD0094B984208D00E4B984205D011
:101C10000D4B984202D00D4B984201D10B7A0386AE
:101C20000123838270470000002C014000340140F2
:101C30000004004000080040000C0040001000407C
:101C400000140040004001400044014000480140B1
:101C50004FF6FF71818000210180C18041800172B7
:101C60007047000010B5A0B040F22551124800F0B6
:101C70003BF9F8B17C2211496846FEF7C8FA0F48D3
:101C800010380FC802F03CF830B1FF2000F018F80F
:101C9000FF2000F015F808E0074800F0E1F9C4B2B1
:101CA00021460648103802F052F840F22551024809
:101CB00000F0F2F820B010BD00380140D400002040
:101CC00010B504462146054800F0CFF900BF402179
:101CD000024800F0FCF80028F9D010BD003801409F
:101CE00010B540F22551534800F0FEF800287BD093
:101CF000504800F0B5F9C4B24F480078062874D2B5
:101D0000DFE800F003121D2B475F682C08D101208B
:101D1000494908700020494908804949088002E083
:101D20000020454908707EE044480088204443492B
:101D300008804448048002203F49087073E044B999
:101D40003E48008820443D49088003203A490870F5
:101D500002E000203849087065E03B480480842C8C
:101D600008D136480088204434490880042032498C
:101D700008700DE0282C08D13048008820442F49F5
:101D8000088004202C49087002E000202A490870CD
:101D900049E02A48008820442849088028480188CA
:101DA0000088401C264A1080284844542548008852
:101DB000001F11460988884202DC05201E49087070
:101DC00031E01E490888C11700EB11610912A0EB30
:101DD00001211A4A11801046008884421BD11C48F8
:101DE000007818B9012002E023E018E0002018492B
:101DF000087015480088842807D1144B1A7AD979BD
:101E00009879FFF7A3F91349486700200B49088028
:101E10000949087002E000200749087003E000202B
:101E20000549087000BF00BF40F22551014800F08D
:101E300033F810BD0044004033000020340000207F
:101E400038000020360000203A0000205001002019
:101E5000320000204000002010B540F22551054816
:101E600000F042F820B140F22551024800F014F889
:101E700010BD00000048004010B50446214605484A
:101E800000F0F3F800BF4021024800F020F80028DD
:101E9000F9D010BD0048004010B50022002340F6E4
:101EA0006A14A14200D100BF0A1201249440A3B2D7
:101EB000DC43048010BD21B1828942F4005282814A
:101EC00004E082894DF6FF731A4082817047024612
:101ED0000020B1F5007F00D100BF13880B400BB18B
:101EE000012000E00020704770B502460024002366
:101EF0000025002040F66A16B14200D100BFC1F3B0
:101F0000421501F01F03012606FA03F3012D02D149
:101F10009689334006E0022D02D1168A334001E053
:101F2000968A33400C12012606FA04F416883440CF
:101F300013B10CB1012000E0002070BDF0B50346E4
:101F4000002400260025002040F66A17B94200D17F
:101F500000BF1846C1F3421401F01F06012707FA1B
:101F600006F5012C01D10C3004E0022C01D1103017
:101F700000E014301AB107682F43076002E00768D9
:101F8000AF430760F0BD00002DE9F04786B005467D
:101F90000E460024A24600BFA1460027B08900B12A
:101FA00000BF2F462C8A4CF6FF700440F088044393
:101FB0002C82AC894EF6F3100440B0883189084376
:101FC000718908430443AC81AC8A4FF6FF4004405A
:101FD000B0890443AC8201A8FEF7C2FB1F488742C8
:101FE00002D1DDF810A001E0DDF80CA0A88900F412
:101FF000004040B10AEBCA0000EB0A10316849000A
:10200000B0FBF1F807E00AEBCA0000EB0A103168F8
:102010008900B0FBF1F86420B8FBF0F0040120095E
:10202000642101FB1089A88900F4004040B13220EE
:1020300000EBC900B0FBF1F000F00700044308E03A
:10204000322000EB09106421B0FBF1F000F00F002A
:1020500004432C8106B0BDE8F08700000038014041
:1020600001468888C0F308007047C1F308028280E7
:10207000704700BFFEE7490050EAC12018BF0420A6
:102080004A0D18BF40F0010040F2FF72B2EB515F01
:1020900008BF40F00200012808BF0520704700007B
:1020A0002DE9F74F144694B00021C4E902111599A7
:1020B000079121F00045C9498D4206DC1599C4E914
:1020C000000117B00020BDE8F08FC549DFF814A368
:1020D000A9423CDD0799C44E0029C44FC44A159952
:1020E000534619DD02F084FE554506D0C14AC24B65
:1020F00002F07EFEC4E900010AE04FF0D352BE4B6D
:1021000002F076FE32463B4602F072FEC4E9000160
:1021100017B00120BDE8F08F02F05EF9554506D0FA
:10212000B44AB54B02F058F9C4E900010AE04FF097
:10213000D352B14B02F050F932463B4602F04CF913
:10214000C4E9000117B04FF0FF30BDE8F08FAB4994
:10215000A942159978DB21F0004183468846A84AB8
:10216000A84B02F01FFC0022A74B02F035F902F049
:1021700083FB099002F0AFFB06460F469C4A53468C
:1021800002F010FC43465A4602F040FD80468A4663
:10219000984A994B3046394602F004FC2A0D012535
:1021A0000B924246534602F031FD032DC4E9000173
:1021B00039D00B98C1F30A51401A05EB451111397A
:1021C000814230DA9148C346784400EB0510CDF8DF
:1021D0000CA00C90D0E900233046394602F0E2FB17
:1021E00002460B46049106905846039902F000FE01
:1021F00080468A4602460B465846039902F0F8FD8F
:10220000049B069A02F0F4FD83460C98039139462C
:10221000D0E90223304602F0C5FB5A46039B02F088
:10222000E7FD6D1CBDE707980028A2BF099817B00D
:10223000BDE8F08F616881F000416160099817B0D6
:102240004042BDE8F08FFFE784461598C1F31301C3
:10225000C0F30A50A0F2F5304FEA601800F01F06F4
:10226000C6F12000139000200690079041F4801ED4
:1022700005206D4676B1664A08EB00017A4452F8B3
:10228000213002EB8101B3404A68139922FA01F12F
:10229000194305E05F4908EB0002794451F8221028
:1022A000A1FB0E27A1FB0C131A449A4234BF012351
:1022B000002303EB070A05EB8003D3E901B70F44C2
:1022C0008F4234BF0121002193448B4411B19345C7
:1022D00002D903E0934501D2012100E00021C3E9C6
:1022E00001B7514445F82010011EA0F10100C1DCE6
:1022F0000298059F00F10050800F12900298DDE9CE
:102300000356800002F0E7FA834628460D9102F05A
:10231000F9FA6FF01D0203F05DF8CDE90E013046C9
:1023200002F0F0FA6FF03D0203F054F880468A465E
:10233000384602F0E7FA6FF05D0203F04BF807460B
:1023400042465346119102F047F8DDE90E2302F0B0
:1023500043F85A460D9B02F03FF800250E465A46B8
:1023600028460D9B02F044FDDDE90E2302F040FDFE
:102370004246534602F03CFD3A46119B02F046FCB1
:10238000DFF898A0244A534602F00CFB0746884623
:10239000234A244B3146284602F004FB3A46434682
:1023A00002F01AF8074688464FF0A84253463146D5
:1023B000284602F0F7FA3A46434602F00DF8159A1D
:1023C00012F0004F04D0129A81F000415242129252
:1023D000C4E90001129817B0BDE8F08FFB21E93F76
:1023E0007CD90240FB21F93F7370032E8A19A33B6D
:1023F000000040543163621A61B4D03DFB21394181
:1024000083C8C96D305FE43F0000E03FEC3300005B
:10241000683300004A330000182D4454FB21F93D75
:102420003326A611460B113C2DE9FF4D21F0004843
:1024300007460C46B8F1795F08DA02F01DFA002869
:1024400001BF0020324904B0BDE8F08D3A46234672
:102450001046194602F0A6FA054602462D480E46D9
:102460000B460621784400F05DF82A46334602F018
:1024700099FADDE9022382468B463846214602F06E
:1024800091FA04460F4652465B462846314602F012
:1024900089FA22463B4602F0ABFC07468A464FF0DB
:1024A000FF322846314602F095FF1B4A90450ADA72
:1024B0003A46534602F09CFC04B00022BDE8F04DC1
:1024C000134B02F0A3BB154A4245A8BFA8F500155F
:1024D0004FF00004B8BF124D22462B4602F088FC94
:1024E0000646884622462B460020094902F080FC19
:1024F00004460D463A4653463046414602F078FCC3
:1025000004B022462B46BDE8F04D02F07FBB000030
:102510000000F03F183100003333D33F0000E93FA3
:102520000000D23F2DE9F0414F1E00EBC7010446E9
:10253000D1E9000115461E4637F006020DD02A46A5
:10254000334602F02FFA7F1E04EBC703D3E90023C2
:1025500001F042FF37F00602F1D1022F25D0042FFF
:1025600013D0062F18BFBDE8F0812A46334602F08B
:1025700019FAD4E90A2301F02FFF2A46334602F064
:1025800011FAD4E9082301F027FF2A46334602F066
:1025900009FAD4E9062301F01FFF2A46334602F068
:1025A00001FAD4E9042301F017FF2A46334602F06A
:1025B000F9F9D4E9022301F00FFF2A46334602F06D
:1025C000F1F9D4E90023BDE8F04101F005BF0000B6
:1025D0002DE9FF4D054621F0004084B00C46B0F1D6
:1025E000795F0BDA2846FFF746FD042808BF00F0A4
:1025F0007FF8284608B02146BDE8F08D2A460B46F4
:10260000104602F0CFF906460F462A46234602F04E
:10261000C9F9804626488A4632463B460521784419
:10262000FFF780FF83461098029160B3214A224B46
:102630004046514602F0B6F9CDE900015A464046FF
:102640005146029B02F0AEF982468846DDE906015A
:102650004FF0FF3202F0BEFE5246434602F0C8FB86
:1026600032463B4602F09EF9DDE9062302F0C0FB4C
:10267000DDE9002302F0BCFB08B02A462346BDE892
:10268000F04D02F0C3BA0B465A463046394602F0C6
:1026900089F9084A084B01F09FFE4246534602F072
:1026A00081F908B02A462346BDE8F04D01F094BEFA
:1026B0005E300000495555555555C5BF002213469B
:1026C0001046014901F044BF0000F03F012202F032
:1026D00081BE01F081BE002213461046114601F072
:1026E00037BF40F2013200204FF0E04102F072BEED
:1026F000024A0020110702F06DBE000001FDFFFF3D
:10270000014600BF704700002DE9F84F04460D4612
:1027100021F0004000917349814211DC72498842E6
:1027200001DC06D12CB120462946BDE8F84FFFF761
:10273000CDBF6E48002DCCBF6D496E49BDE8F88F06
:102740006D49814211DD6D498142D8BF4FF0FF369E
:102750006DDD20462946FFF78EFC042808BFFFF7F1
:10276000C7FF20462946BDE8F88F6549654F25F02B
:102770000045814233DD6449814219DD002632463D
:102780004FF080432046294601F026FE80468A46C7
:1027900001222046294602F01DFE00223B4602F09F
:1027A00027FB4246534601F0D3FE04460D463EE069
:1027B00001260022BA463B462046294601F00CFE7F
:1027C00080460F46002253462046294602F010FB61
:1027D00042463B4601F0BCFE04460D4627E04B490D
:1027E00081421BDDDFF828A1022600225346204645
:1027F000294602F0D7F800223B4601F0EDFD804665
:102800000F46002253462046294602F0F1FA42467E
:102810003B4601F09DFE04460D4608E00326224695
:102820002B4600203B4901F093FE04460D4622460C
:102830002B461046194602F0B5F88B4682460246F2
:102840000B4602F0AFF807460246334888460B466F
:1028500006217844FFF766FE52465B4602F0A2F876
:1028600082462E488B463A46434605217844FFF778
:1028700059FE3A46434602F095F802460B46002EB2
:10288000504659460CDA01F0A7FD22462B4602F0CD
:1028900089F801B022462B46BDE8F04F02F0B6B9E8
:1028A00001F09AFD22462B4602F07CF81C4A7A443D
:1028B00002EBC603D3E9002302F09AFA22462B4624
:1028C00002F096FA174A7A4402EBC603D3E90023D2
:1028D00002F09CF9009A002AB8BF81F00041BDE8DF
:1028E000F88F0000000010440000F07F182D4454C1
:1028F000FB21F93FFB21F9BF0000DC3F0000203E37
:102900000000F33F0000F03F0000E63F008003407E
:102910000000F83F0000F0BF722C0000302C0000D7
:10292000CE2B0000962B000000B5244B21F0004276
:1029300087B09A42DCBF0022134629DD204B9A4221
:1029400008D140B94FF00100FDF7C3FCFFF7C3FE0B
:1029500007B000BD03DBFFF7B9FE07B000BD02AA58
:10296000FFF79EFB10F0030104BF0DF1080C9CE87B
:102970000F000DD0012001290ED0022914D00DF135
:10298000080C00909CE80F00FFF722FE07B000BD86
:10299000FFF74AFD07B000BD0DF1080C00909CE860
:1029A0000F00FFF715FE05E00DF1080C9CE80F0085
:1029B000FFF73AFD07B081F0004100BDFB21E93F80
:1029C0000000F07F10B56FF00400FEF7B9F80A4878
:1029D00000680A49B0FBF1F0094908700846007820
:1029E00000EB4001C1EBC0104FF6FF7101EAC000DF
:1029F0000449088010BD00000400002000127A0085
:102A0000180000201A00002030B50B460021012BD1
:102A10001AD10478012C06D1154D2C600024154DD7
:102A200085F8504011E00478022C06D1104D2C603E
:102A30000124104D85F8504007E00478032C02D1A2
:102A40000B4D2C6001E000BF00BF00BF084C2468A4
:102A5000012C03D0064C2468022C08D1002104E08C
:102A60004C1C045D044D6C54491C0C29F8DB30BD32
:102A70003C000020400000202102002010B5FFF79C
:102A8000A1FF4FF4A060FDF71FFEFDF7BBFD41F273
:102A9000873140F2CF20FEF76FFE4FF4165001F061
:102AA00001FC4FF4165001F057FB4FF4165001F0A3
:102AB000A5FBFDF74BFC044801F042F90020034957
:102AC00081F8500010BD0000C4000020400000202C
:102AD000DCB0642143A8FDF7CCFB4FF00009C846E9
:102AE000FFF7CCFFEAE2FE4800788DF88000FC4852
:102AF00040788DF88100FA4880788DF88200F84897
:102B0000C0788DF88300F64800798DF88400F44889
:102B100040798DF88500F24880798DF88600F0487C
:102B2000C0798DF88700EE48007A8DF88800EC486F
:102B3000407A8DF88900EA48807A8DF88A00E84862
:102B4000C07A8DF88B00E648007B8DF88C00E44855
:102B5000407B8DF88D00E248807B8DF88E00E04848
:102B6000C07B8DF88F00DE48007C8DF89000DC483B
:102B7000407C8DF89100DA48807C8DF89200D8482E
:102B8000C07C8DF89300D648007D8DF89400D44821
:102B9000407D8DF89500D248807D8DF89600D04814
:102BA000C07D8DF89700CE48007E8DF89800CC4807
:102BB000407E8DF89900CA48807E8DF89A00C848FA
:102BC000C07E8DF89B00C648007F8DF89C00C448ED
:102BD000407F8DF89D00C248807F8DF89E00C048E0
:102BE000C07F8DF89F00BE4890F820008DF8A000AF
:102BF000BB4890F821008DF8A100B94890F8220058
:102C00008DF8A200B64890F823008DF8A300B448D0
:102C100090F824008DF8A400B14890F825008DF8B4
:102C2000A500AF4890F826008DF8A600AC4890F8B3
:102C300027008DF8A700AA4890F828008DF8A80072
:102C4000A74890F829008DF8A900A54890F82A0017
:102C50008DF8AA00A24890F82B008DF8AB00A04890
:102C600090F82C008DF8AC009D4890F82D008DF860
:102C7000AD009B4890F82E008DF8AE00984890F873
:102C80002F008DF8AF00964890F830008DF8B00016
:102C9000934890F831008DF8B100914890F83200D7
:102CA0008DF8B2008E4890F833008DF8B3008C4850
:102CB00090F834008DF8B400894890F835008DF80C
:102CC000B500874890F836008DF8B600844890F833
:102CD00037008DF8B700824890F838008DF8B800BA
:102CE0007F4890F839008DF8B9007D4890F83A0097
:102CF0008DF8BA007A4890F83B008DF8BB00784810
:102D000090F83C008DF8BC00754890F83D008DF8B7
:102D1000BD00734890F83E008DF8BE00704890F8F2
:102D20003F008DF8BF006E4890F840008DF8C0005D
:102D30006B4890F841008DF8C100694890F8420056
:102D40008DF8C200664890F843008DF8C3006448CF
:102D500090F844008DF8C400614890F845008DF863
:102D6000C5005F4890F846008DF8C6005C4890F8B2
:102D700047008DF8C7005A4890F848008DF8C80001
:102D8000574890F849008DF8C900554890F84A0016
:102D90008DF8CA00524890F84B008DF8CB0050488F
:102DA00090F84C008DF8CC004D4890F84D008DF80F
:102DB000CD004B4890F84E008DF8CE00484890F872
:102DC0004F008DF8CF00464890F850008DF8D000A5
:102DD000434890F851008DF8D100414890F85200D6
:102DE0008DF8D2003E4890F853008DF8D3003C484F
:102DF00090F854008DF8D400394890F855008DF8BB
:102E0000D500374890F856008DF8D600344890F831
:102E100057008DF8D700324890F858008DF8D80048
:102E20002F4890F859008DF8D9002D4890F85A0095
:102E30008DF8DA002A4890F85B008DF8DB0028480E
:102E400090F85C008DF8DC00254890F85D008DF866
:102E5000DD00234890F85E008DF8DE00204890F8F1
:102E60005F008DF8DF001E4890F860008DF8E000EC
:102E70001B4890F861008DF8E100194890F8620055
:102E80008DF8E200164890F863008DF8E3001448CE
:102E900090F864008DF8E400114890F865008DF812
:102EA000E5000F4890F866008DF8E6000C4890F8B1
:102EB00067008DF8E7000A4890F868008DF8E80090
:102EC000074890F869008DF8E900054890F86A0015
:102ED0008DF8EA00024890F86B008DF8EB0001E0F5
:102EE000C4000020764890F86C008DF8EC0074481F
:102EF00090F86D008DF8ED00714890F86E008DF837
:102F0000EE006F4890F86F008DF8EF006C4890F875
:102F100070008DF8F0006A4890F871008DF8F100AB
:102F2000674890F872008DF8F200654890F87300D9
:102F30008DF8F300624890F874008DF8F400604852
:102F400090F875008DF8F5005D4890F876008DF8E2
:102F5000F6005B4890F877008DF8F700584890F835
:102F600078008DF8F800564890F879008DF8F9004F
:102F7000534890F87A008DF8FA00514890F87B0099
:102F80008DF8FB004E4890F87C008DF8FC004C4812
:102F900090F87D008DF8FD00494890F87E008DF88E
:102FA000FE00474890F87F008DF8FF00444890F8F5
:102FB00080008DF800014248D0F8840041904048DC
:102FC000D0F888007C2224A942906846FDF71FF9BA
:102FD00020A80FC800F08AFE00B16FE0384800F06A
:102FE0009FFE0446B8F1080F63D2DFE808F0040D35
:102FF0006215232C3746FF2C05D14FF00108002025
:1030000030490880814657E0FF2C02D14FF0030879
:1030100001E04FF000084FE0012C08D101272948BA
:1030200000882044274908804FF0040801E04FF051
:10303000000841E0234800882044224908802546B2
:103040004FF0050838E01F48008820441D490880DB
:1030500044EA052006B24FF006082DE01948008822
:10306000204418490880484609F1010943A90C5435
:10307000B14501DB4FF007081EE012480088FF2130
:1030800090FBF1F201FB12000E490880084600880F
:1030900084420BD13246394643A8FFF7B5FC00F015
:1030A00065FE002007490880804601E04FF00008D7
:1030B00002E04FF0000800BF00BF00BF13E50000B2
:1030C000C40000200000002010B5084890F850000F
:1030D00010B1012806D102E0FDF722FC02E0FDF765
:1030E000AFFC00BF00BF00F003F810BD400000209F
:1030F0002DE9F04F91B0002007904FF08040FEF78F
:10310000ACFC0790079802F06FF8069001F05AFFA8
:10311000824600227A4B01F045FC80460022794B22
:1031200001F016FA06460F460022754B3046394626
:1031300001F00EFA804689467349486E01F0CBFBD8
:10314000824642464B4601F047F9704A704BCDE942
:10315000000101F027FC6F4A6F4BCDE9020101F03D
:1031600021FCCDE9040101F005F967494865486D86
:1031700001F028FF694AC2E902011046D0E9008344
:103180004246D0E902A1504601F032FECDE90C01E1
:103190006248D0E90210614AC2E900106048FEF7B7
:1031A0005CFC0790079802F01FF8069001F00AFFF8
:1031B00082460022524B01F0F5FB80460022514B23
:1031C00001F0C6F906460F4600224D4B30463946FF
:1031D00001F0BEF9804689464B49886E01F07BFBC1
:1031E000824642464B4601F0F7F8484A484BCDE943
:1031F000000101F0D7FB474A474BCDE9020101F03E
:10320000D1FBCDE9040101F0B5F83F498865886D2F
:1032100001F0D8FE434AC2E9020111460846D1E94D
:1032200000834246D0E902A1504601F0E1FDCDE91C
:103230000E013C48D0E902103A4AC2E900100022CF
:103240001346DDE90E81404601F0DAFA1FD02E491F
:10325000486F01F0B7FE8046334A344B01F0A2FBC1
:10326000CDE90401DDE90EA35246DDE90C814046BB
:1032700001F06EF9CDE90001FFF746FACDE9020150
:10328000DDE9042301F0A8F804460D460FE01E49CD
:10329000486F01F097FE8046234A244B01F082FBE1
:1032A00082461C4A224B01F097F804460D462246FE
:1032B0002B4608A90CA8FEF7B3F81349C86E01F015
:1032C00081FECDE90401DDE90883424601F084F87E
:1032D000824601F04FF80C49C866086F01F072FE93
:1032E0008246DDE90A83424601F076F8CDE9040121
:1032F00001F040F80449086711B0BDE8F08F000004
:103300000080764000409F404000002052B81E855B
:10331000EB51244038E92F54FB210940880200205A
:103320000008004098020020113444A246DF913F7B
:10333000FB21F93F2DE9F04D16460F4694B01C468F
:1033400021F0004123F00042002814BF4FF0010C8F
:103350004FF0000C0CEB470CFE4B0CEB03054FEA57
:10336000630C65452BD3350018BF012505EB4405DB
:103370001D44F94B9D4222D3F84B52EA060C02D071
:103380009F4205D148B914B000201946BDE8F08D20
:10339000002808BF4FF0000C01D04FF0010C0CEBDF
:1033A000470313F5001F0AD8002E14BF4FF0010C7D
:1033B0004FF0000C0CEB440313F5001F07D914B0B9
:1033C000324623463946BDE8F04DFFF782B9DFF8B3
:1033D00090834FF0000A002FB8BF424523DAE14B3B
:1033E0009A42A8BF4FF0020A1DDADC4B93421ADC66
:1033F000DD4B03EB2253142B08DDC3F1340C26FA0A
:103400000CF303FA0CFCB4450DD108E05EB9C3F12E
:10341000140C22FA0CF303FA0CFC944503D103F0CC
:103420000103C3F1020A51EA00031BD1002C19DA8F
:10343000002F18BFBAF1020F02D0BAF1010F07D066
:103440000220FCF746FF14B0BDE8F04DFFF736B997
:103450000220FCF73EFFFFF731F914B081F0004184
:10346000BDE8F08D330070D1424525D107F180428F
:1034700012F5801201BF00280020B84914B008BF1F
:10348000BDE8F08DB548884207DC002CA1BF184686
:10349000214614B0BDE8F08D07E0002CBFBF1846F0
:1034A00084F0004114B0BDE8F08DB0497944D1E911
:1034B000000114B0BDE8F08DDFF8A0C262452AD14A
:1034C000002C24DA39B1414517D1002804BF00206F
:1034D00002461CD106E040B10220FCF7FAFEFFF7DD
:1034E00000F90A46394600F0D7BA9D4A394614B069
:1034F000002062F31E01BDE8F08D08DA14B03B46EF
:10350000BDE8F04D02460020614601F021B814B03C
:103510003946BDE8F08D414517DAB4F1804F0CD043
:10352000A4F10053B3F1FF530FD13B1E0DDB14B0D8
:103530001946BDE8F04D00F041BD3B4614B00246CF
:10354000BDE8F04D194601F02DBA050027F0004303
:103550003AD1E1B1414537D1002F06DD002CA1BFA2
:103560000020414614B0BDE8F08D002F01DD002C95
:103570001FDB002F16DA002C14DBBAF1010F4FF01D
:10358000000014BF76497A4914B0BDE8F08DBAF155
:10359000020F18BF002F0CD0BAF1010F09D1002F74
:1035A00007DA0BE0002FB8BF002C0DDABAF1010FDB
:1035B00004D0002014B00146BDE8F08D14B0002006
:1035C0004FF00041BDE8F08D4FF0010808EBE77CBB
:1035D000CDF814C05CEA0A0C0DD0DFF898C1624542
:1035E0007EDDDFF894C1654B624512DD8B420ADB5C
:1035F000002C18DB23E00120FCF76BFE14B0BDE8C3
:10360000F04DFFF768B8554A8A4202DC002C0ADC0C
:1036100015E0994202DA002C11DA04E04F4B99428E
:1036200019DD002C0BDD0220FCF753FEFFF759F8E3
:103630004B4A14B061F31E021146BDE8F08D022022
:10364000FCF747FEFFF754F8444A14B061F31E023A
:103650001146BDE8F08D0022394601F0C9FB07464E
:103660000D466FF0010201F0B5FE4FF05532444BAC
:1036700001F0CCFA3A462B4601F094F90022414B76
:1036800001F0C4FA80468B463A462B46104619464E
:1036900001F088F942465B4601F084F988460E90B5
:1036A0004FF0C042384B3846294601F07BF983463B
:1036B0000091364A344B41460E9801F073F980462A
:1036C0000191334A334B3846294601F06BF94246A3
:1036D000019B01F08DFB0D4602460B460C9000E06D
:1036E00011E05846009900F077FE002788465A46B8
:1036F0003846009B01F07CFB2B460C9A01F086FAC1
:10370000024600F079B90020B1F5801F07DA3522B2
:103710002846194601F05EFE05466FF0340000EBC6
:103720002150A0F2FF300190C1F3130040F07F61FF
:1037300041F04051029118498842D8BF4FF0000B28
:1037400035DD16498142C8BF4FF0010B2FDC4FF029
:10375000000B25E0FFFF1F00FFFF0F000000F03F00
:103760000000F07F0000404301FCFFFF002100004B
:103770000000F0FF0000E0410000F043FFFFEF3FDA
:103780005555D53F0000E03F4715F73FFE822B65BA
:1037900044DF5DF80BAE543E8E9803007AB60B0002
:1037A0000198401C01900298A0F580100290FF48FB
:1037B0000299784400EBCB000991D0E90023284618
:1037C0000B93129201F014FB00910A9028460B9B78
:1037D000129A099900F000FE02460B460020F449B7
:1037E00000F0B6FECDE90C010B46024600990A989E
:1037F00001F0D8F80690EF488846002778440299EF
:10380000006810904FF0005040EA610000EB8B40E0
:1038100000F5002102910B9B129A109801F0E8FA32
:103820002A46099B01F0F2F93A46434601F0BAF8FC
:103830000891129038464146029B109A01F0B2F866
:10384000009B0A9A01F0E2F9089B129A01F0D0FA63
:10385000DDE90C2301F0A6F80B91069A129043467D
:103860001046194601F09EF805460246D2480B461E
:103870000A9106217844FEF755FE0A9B2A460891D4
:1038800002901046194601F08DF8089B029A01F04B
:1038900089F805460991434638461946069A00F0CC
:1038A0009BFD0B9B129A01F07DF82A46099B00F0C4
:1038B00093FDCDE908013A4643461046194601F00A
:1038C00071F80A910022BD4B009000F085FDDDE902
:1038D000082300F081FD0D463A46B84B384601F00A
:1038E00087FA0A9B009A01F083FADDE9082301F0C8
:1038F0008DF9CDE908013A462B461046414601F0C4
:1039000051F800910A90DDE908014346069A01F05A
:1039100049F8069088462B463A460B99129801F0D2
:1039200041F84346069A00F057FD80460B46024692
:103930000D9100990A9800F04FFD00200F460546B2
:10394000009B0A9A01F054FA42460D9B01F05EF981
:1039500088460E904FF06042994B2846394601F058
:1039600021F802910090974A954B41460E9801F03C
:1039700019F880460391944A944B2846394601F041
:1039800011F84246039B00F027FD914A7A4402EB6E
:10399000CB03D3E9002300F01FFD054607910198F2
:1039A00000F099FF0C9003912A46079B029900981A
:1039B00000F012FD874A7A4402EBCB03D3E90023DF
:1039C0009346019300F008FD039B0C9A00F004FD60
:1039D000002788463846039B0C9A01F009FA5A469C
:1039E000019B01F005FA029B009A01F001FA2A46B8
:1039F000079B01F00BF902460020069005986C4DDC
:103A0000AAF10103184301D1734D069000200B4623
:103A100004903046214600F0C5FF82468B4623467F
:103A200030461946049A01F0E3F93A46434600F05D
:103A3000B9FF52465B4600F0CFFC06468A463A463E
:103A400043462146049800F0ADFF04460F46324637
:103A5000534600F0C1FC614A8B46914221DBABEB3F
:103A6000020353EA000210D122463B4601F0C0F99E
:103A7000804603915A4A5B4B3046514600F0ACFCFD
:103A80004246039B01F08CF827D20220FCF721FC70
:103A9000FEF727FE0A46294614B062F31E01BDE870
:103AA000F08D514B2BF000429A4216D34F4A0BEB4C
:103AB000020353EA000208D122463B4601F098F97E
:103AC0003246534601F06CF807D80220FCF701FC9F
:103AD000FEF70EFE0A462946DEE72BF00040444979
:103AE000444A01EB20514FF00008824223DA481C7F
:103AF0004FF4801121FA00F058443F4AC0F30A51B4
:103B00007A443E4BA1F2FF31CB4020EA0303C0F3DD
:103B1000130040F4801CC1F1140012682CFA00F864
:103B2000BBF1000FB8BFC8F100082046394601F0CC
:103B30005FF904460F4622463B463046514600F0A8
:103B40004BFC4FF0000B5A462D4B5846039100F0AA
:103B500029FF00910A902B4A2B4B5846039900F0FD
:103B600021FF0491029022463B465846039901F0FA
:103B70003FF93246534601F049F8244A244B00F0FD
:103B800011FF049B029A00F027FC07468A46009B1F
:103B90000A9A00F021FC04460E46009B0A9A01F0A6
:103BA00027F93A46534601F031F833E0421D000050
:103BB0000000F03FB01D0000B01C000000000840F5
:103BC00009C7EE3FFD033ADCF5015B14E02F3EBE72
:103BD000881B00004E1B00000000F0BF000090405A
:103BE000FE822B654715973C00CC904000346F3F18
:103BF00001FCFFFF0000E03FAC1A0000FFFF0F00D8
:103C0000432EE63F396CA80C615C20BEEF39FAFE0A
:103C1000422EE63F0746224633460F91104619468C
:103C200000F0C0FE834602462E488A460B46052118
:103C30007844FEF777FC5A46534600F0B3FE22461E
:103C4000334600F0E3FF82468B463A462046314633
:103C50000F9B00F0A7FE3A460F9B00F0BDFB0F46FE
:103C60000A9000224FF080435046594601F0C0F8B8
:103C70000391009052465B462046314600F092FE8A
:103C8000039B009A00F064FC3B460A9A01F0B0F8EE
:103C90002246334601F0ACF80022134B00F0B6FF89
:103CA0000E46044601EB08510815002810DC424678
:103CB0002046314601F08EFBFEF7DDF9042808BFEF
:103CC000FEF716FD42462046314601F083FB0446CE
:103CD00006980B4614B022462946BDE8F04D00F088
:103CE00061BE0000241900000000F03F0FB42198CD
:103CF0002299884202D1012004B070470020FBE7DE
:103D00000FB42298401C812190FBF1F201FB1200BC
:103D10002199884202D1012004B070470020FBE7BE
:103D200010B50146D1F88420885CD1F88420521C5B
:103D3000812392FBF3F403FB1422C1F8842010BD0D
:103D400010B504468C212046FCF793FA10BD10B53F
:103D5000D0F888208154D0F88820521C812392FB0F
:103D6000F3F403FB1422C0F8882010BDF8B5102529
:103D700000263048006808B9012000E000202D49E5
:103D8000086040212C48FEF7A2F8002851D02B48AB
:103D90000068012803D029480068022805D100F0F6
:103DA00033F900202549086043E0244800680328CF
:103DB0003FD1FF20FDF784FFFF20FDF781FF0120A9
:103DC000FDF77EFF0020FDF77BFF0D20FDF778FF5C
:103DD0000220FDF775FF1A48C66E0096002409E020
:103DE0001DF80400FDF76CFF1DF80400284485B29F
:103DF000601CC4B2042CF3DB1148066F009600244B
:103E000009E01DF80400FDF75BFF1DF804002844DD
:103E100085B2601CC4B2042CF3DBFF2095FBF0F1EB
:103E200000FB115085B2E8B2FDF74AFF00200349BC
:103E30000860F8BD94812142003801403C00002018
:103E400040000020F8B51125002640213148FEF73A
:103E50003EF800285DD0FF20FEF70EF8FF20FEF7A9
:103E60000BF80120FEF708F80020FEF705F81020F7
:103E7000FEF702F8284806690096002409E01DF8BC
:103E80000400FDF7F9FF1DF80400284485B2601C0A
:103E9000C4B2042CF3DB204846690096002409E0F4
:103EA0001DF80400FDF7E8FF1DF80400284485B262
:103EB000601CC4B2042CF3DB17488669009600240A
:103EC00009E01DF80400FDF7D7FF1DF804002844A1
:103ED00085B2601CC4B2042CF3DB0F48C66900969F
:103EE000002409E01DF80400FDF7C6FF1DF80400DA
:103EF000284485B2601CC4B2042CF3DB2846E917C1
:103F000005EB11610912A5EB01218DB2E8B2FDF7B5
:103F1000B3FFF8BD004800404000002000B5254B2D
:103F200021F0004287B09A4203DC0022134600923F
:103F30002BE0214B9A4208D140B94FF00100FCF729
:103F4000C8F9FEF7C8FB07B000BD03DBFEF7BEFBF8
:103F500007B000BD02AAFEF7A3F810F003014FF06E
:103F600001000DD0012914D002291AD00DF1080C3E
:103F70009CE80F00FEF758FA07B081F0004100BD41
:103F80000DF1080C00909CE80F00FEF721FB07B034
:103F900000BD0DF1080C9CE80F00FEF745FA07B0D4
:103FA00000BD0DF1080C00909CE80F00FEF710FB1F
:103FB000E2E70000FB21E93F0000F07F2DE9F0413E
:103FC00006460F4600F02EFE04000D4618BF0120E5
:103FD000284320F00040C0F17F6000F1E040C00FB6
:103FE0000ED0301C18BF0120384320F00040C0F133
:103FF0007F6000F1E040C00F04BF0120FCF769F9C9
:1040000020462946BDE8F0811CB5504800680128CB
:104010004BD14F4800788DF804004D4840788DF81A
:1040200005004B4880788DF806004948C0788DF827
:10403000070048480199C1620146C86A00F084F946
:104040004449C862424800798DF8040040484079EC
:104050008DF805003E4880798DF806003C48C0790F
:104060008DF807000846019901630146086B00F0CE
:104070006BF9384908633648007A8DF804003448F3
:10408000407A8DF805003248807A8DF80600304875
:10409000C07A8DF807000846019941630146486BD4
:1040A00000F052F92B4948634EE028480068022886
:1040B0004AD1274800788DF80000254840788DF8CF
:1040C0000100234880788DF802002148C0788DF8DF
:1040D00003002048009981630146886B00F034F9A1
:1040E0001C4988631A4800798DF800001848407907
:1040F0008DF80100164880798DF802001448C079C7
:104100008DF8030008460099C1630146C86B00F0B2
:104110001BF91049C8630E48007A8DF800000C485E
:10412000407A8DF801000A48807A8DF8020008482C
:10413000C07A8DF803000846009901640146086CB6
:1041400000F002F9034908641CBD00003C00002097
:10415000210200204000002010B586B00446012155
:104160000420FCF7DDFA01214804FCF7B9FA042029
:10417000ADF8140003208DF8160018208DF81700F4
:1041800005A91C48FCF7A6F90820ADF81400042086
:104190008DF8170005A91748FCF79CF926208DF823
:1041A000000003208DF801008DF8020001208DF839
:1041B00003006846FCF750FA01940020ADF80800AF
:1041C000ADF80A00ADF80C00ADF810000C20ADF809
:1041D0000E0001A90848FDF7D7FE012240F2255143
:1041E0000548FDF7ABFE01210348FDF764FE06B06C
:1041F00010BD0000000801400044004010B586B02A
:10420000044601210820FCF78BFA01218804FCF701
:1042100067FA4FF48060ADF8140003208DF81600A3
:1042200018208DF8170005A91C48FCF753F94FF426
:104230000060ADF8140004208DF8170005A9174898
:10424000FCF748F927208DF8000003208DF80100C5
:104250008DF8020001208DF803006846FCF7FCF998
:1042600001940020ADF80800ADF80A00ADF80C008C
:10427000ADF810000C20ADF80E0001A90848FDF7BC
:1042800083FE012240F225510548FDF757FE01212A
:104290000348FDF710FE06B010BD0000000C014001
:1042A0000048004010B586B00446012144F20400E5
:1042B000FCF736FA4FF40070ADF8140003208DF8C7
:1042C000160018208DF8170005A91D48FCF702F903
:1042D0004FF48060ADF8140004208DF8170005A994
:1042E0001748FCF7F7F825208DF8000000208DF81E
:1042F000010003208DF8020001208DF803006846BC
:10430000FCF7AAF901940020ADF80800ADF80A0006
:10431000ADF80C00ADF810000C20ADF80E0001A9AE
:104320000848FDF731FE012240F225510548FDF70E
:1043300005FE01210348FDF7BEFD06B010BD0000DB
:10434000000801400038014010B504464FF080419C
:10435000204600F0DCFF02D24FF0804010BD4FF04D
:104360004041204600F054FF02D24FF04040F5E7B4
:104370002046F3E721F00042A2F16052B2F5801F1F
:1043800001F0004328BFD2F17F6C0BD95FEA001C1B
:1043900043EAC20242EB507018BF704728BF20F0BA
:1043A00001007047B2F5801FBCBF184670474FEA46
:1043B000410C1CF5001F02D2084600F0A3BF70B5E7
:1043C00000F09AFB00000089FFF7F6BF4FF00040B5
:1043D000A0F580007047000010B591EA030F48BFB8
:1043E00083F0004300F10C85841A71EB030C05D2B5
:1043F000121943EB0C03001B61EB0C01DFF824E105
:104400004FEA1154A4EB135C1EEA430F18BF9EEA57
:10441000445F73D023EA0E03DCF1200E21EA04513D
:1044200043F4801332D322FA0CFE10EB0E0023FA71
:104430000CFE41EB0E01CCF1200E03FA0EFE10EB48
:104440000E0051F10001B1F5801FCCF1200E32D2E7
:1044500001EB045112FA0EF2BDE8104058BF70474C
:10446000401C38BF5FEA420218BF7047002814BFE3
:1044700020F0010041F100014FEA410313F5001F54
:1044800038BF7047A1F1C04100F084BB012A43EB63
:104490000302ACF1200CDCF11F0E32BF4FF0000E16
:1044A00023FA0CF310EB030041EB0451B4EB115F62
:1044B000D0D0A1EB045101F5801149085FEA30002A
:1044C00001EB04510ED350F1000038BF12FA0EFE7A
:1044D00008D1BDE81040C9E7401C38BF5FEA42027E
:1044E000CAD1C3E7BDE810404FEA410313F5001FEE
:1044F00038BF7047A1F1C04100F04CBB9EEA445F59
:1045000008D011EA5E0FBDE8104004BF01F0004181
:1045100000207047BDE8104070B500F0EDFA00BF14
:1045200064FBBE3E0000E0FF02494FF0000000F0D7
:104530001FBF00BF0000F87F491058BFC1F14041C4
:104540005B1058BFC3F140438B42EFF300807047CC
:104550002DE9C04130B4DFF8A0C23CEA111418BF05
:104560003CEA131400F0EC8081EA03051CEA111404
:1045700044EAD57418BF1CEA131500F0C780A4EBF9
:1045800005044FF0004545EAC12145EAC32341EA4D
:10459000505143EA525304F17F74994204F50034B8
:1045A0004FEAC0204FEAC22208BF904200F09C8030
:1045B0004FEA13650FF24016765D4FEA134506FB8E
:1045C00005F7C7F1807706FB07F74FEAD737A7FB58
:1045D00003687642C8F58038A7FB06CE38BFA8F13D
:1045E000010807FB08E64FF0000EA6FB028CE6FB75
:1045F00003CEDCF1000CCEF1004E38BFAEF1010E5F
:10460000A6FB0C584FF000074FF00005E6FB0E87A5
:10461000A1FB08C6A0FB07CE16EB0E0645F1000570
:10462000E1FB076515F1E04E7EBFA4F580345FEA3B
:1046300046066D4116F1800745F100054FEA172740
:104640004FEA066647EA0567A6F1DE46B6F1805FE7
:104650004FEA15251FD9384624F0010C05EBC4712B
:10466000BCF1FE6F01EB0C1102D8F0BCBDE800817B
:1046700024425CBF01F5801E9EEAC47F02D4F0BCD8
:10468000BDE80081244238D4F0BCA1F1C041BDE8AE
:10469000004100F07FBA4FEAD22242EA43524FEA89
:1046A000D323A7FB02864FEAD02040EA415007FB04
:1046B00003661EEA0E0F4FEAD12105FB026658BFC2
:1046C000A6EB0056B6EB00564FEA520E4EEAC37EFA
:1046D00018EB0E0E56EB530EBDD518EB02085E41DB
:1046E0007F1C55F10005B6E74FF480154FF0000729
:1046F0004FF000064FF00008ADE7F0BC4FF00000AF
:1047000001F1C04101F00041BDE8008111EA0C1F38
:104710000CEA131500D00CE013EA0C1F00F0258002
:104720004FF00000F0BC81EA030101F00041BDE858
:104730000081F0BCBDE8004181EA030100F02ABA23
:10474000F0BCBDE8004170B500F0D6F9097EFC3E32
:1047500000F007B881EA03014FF0000001F00041CA
:10476000704781EA030100F015BAF0BCBDE80041D2
:104770004FF0000021497047FFFDFBF9F7F5F4F217
:10478000F0EEEDEBE9E8E6E4E3E1E0DEDDDBDAD8EC
:10479000D7D5D4D3D1D0CFCDCCCBCAC8C7C6C5C44A
:1047A000C2C1C0BFBEBDBCBBBAB9B8B7B6B5B4B361
:1047B000B2B1B0AFAEADACABAAA9A8A8A7A6A5A44C
:1047C000A3A3A2A1A09F9F9E9D9C9C9B9A99999810
:1047D0009797969595949393929191908F8F8E8EB3
:1047E0008D8C8C8B8B8A8989888887878685858440
:1047F00084838382828181800000FF070000F87F2C
:1048000051EA030C17D41CF5801F58BFBCF5801F5C
:1048100000F10680994218BF704708BF9042704768
:1048200007D711F5801F58BF13F5801F19D499427F
:104830007047894270471CF5801F08D5BCF5801F62
:10484000F7D58B4218BF704708BF824270474FF4BC
:10485000001C1CEB410F38BF1CEB430F01D28B42F5
:10486000704770B500F048F9922449004FF00051AC
:104870004FF08053FFF760BE4FEA41034FEA5353B6
:10488000A3F58063D3F11E03C8BFD3F1210C0CDD67
:104890004FF0004242EAC12242EA505232FA03FC8F
:1048A0008CEAE17CACEBE1707047102BC4BF0020B8
:1048B000704703F5787CBCF1FF3F04D06FF00042F5
:1048C00082EA2100704770B500F016F94992248001
:1048D00000207047F2E710F0004248BF4042B0FAB3
:1048E00080F310FA03F10AD0C3F11D0303F58063CE
:1048F0004FEA415002EB035202EBD12170474FF0D7
:1049000000007047B0FA80F310FA03F10AD0C3F147
:104910001D0303F580634FEA41504FEA035202EB57
:10492000D12170474FF000007047000051EA030C9E
:1049300017D41CF5801F58BFBCF5801F00F10680FE
:10494000994218BF704708BF9042704707D711F5CA
:10495000801F58BF13F5801F19D4994270478942B0
:1049600070471CF5801F08D5BCF5801FF7D58B421A
:1049700018BF704708BF824270474FF4001C1CEB01
:10498000410F38BF1CEB430F01D28B42704770B50B
:1049900000F0B2F8922449004FF000514FF08053DC
:1049A000FFF7CABDDFF848C170B51CEA111E1EBF73
:1049B0001CEA13159EEA0C0F95EA0C0F00F06F80AD
:1049C00081EA030423EA4C134EEAD47E21EA4C1117
:1049D00041F4801143F48013AE44A1FB024CA0FBD0
:1049E0000365AEF17F7E361955EB0C05A1FB034C38
:1049F0004CF10003A0FB021C16EB0C06654153F1C1
:104A00000003094218BF46F0010613F4007F0BD1E2
:104A10004FEA03314FEA0530340341EA155140EAC9
:104A200016506FF003020AE04FEAC3214FEAC52097
:104A3000F40241EA555140EA56506FF0020202EB8F
:104A40002E4201EB025585EACE710AD05FEA440C92
:104A500018BF24F0004450F1000041F1000120EAA9
:104A6000D47040F2FE7C624500D270BDA84214BFF3
:104A70004FF080444FF04044002E08BF0024BEF1A8
:104A8000806FA8BFA1F1C041BDE8704080F2828074
:104A90004FF0000001F1C04101F0004170479EEA73
:104AA0000C0F0CEA131518BF95EA0C0F06D04FF047
:104AB000000081EA030E0EF0004170BD00F01CF80A
:104AC0008900013E00F007B800F009B84FEA430C36
:104AD0005FEA5C5C08D081EA030100F05BB84FEA52
:104AE000410C5FEA5C5CF6D14FF000000149704771
:104AF0000000FF070000F87F0EF1020E2EF0030EFB
:104B00005EF8046B364205D4012A43EB030515F524
:104B1000001F12D8012841EB010C1CF5001F0CD816
:104B20000ED14FEAD17C15F5001F0CEB4C0C0CF1AB
:104B3000020C08BF4CEBD37C04E04FF0080C01E002
:104B40004FEAD37C0CEB4C0526FA05F606F0070677
:104B5000B6F1040C06D20EEB860CBDE870404CF0AA
:104B6000010C6047DFE80CF0090B02024FF0004136
:104B70004FF00000A1F5002170BD19461046012834
:104B800051EB010418BFD4F5001484BF002001F0DC
:104B9000004170BD0808A0F500114FEA31017047CF
:104BA00053EA010C17D41CF5801F58BFBCF5801FB9
:104BB00000F106808B4218BF704708BF82427047E1
:104BC00007D713F5801F58BF11F5801F19D48B42EA
:104BD00070479B4270471CF5801F08D5BCF5801FAD
:104BE000F7D5994218BF704708BF904270474FF4FD
:104BF000001C1CEB430F38BF1CEB410F01D2994244
:104C000070470FB40CBC03BCFFF7C1BE91EA030FA1
:104C100010B581F000413FF5E7AB83F0004300F0B1
:104C2000EFB800002DE9F04101F5801CBCF5001F34
:104C3000C0F2C3804FEA115C21EA0C510CF1FD0C6B
:104C400041F480115FEA5C0C0CF5C07C01D340009C
:104C500049413DA4890241EA905187028E0E0A0C17
:104C6000A45D04FB04F602FB06F6C6F14046A4FB75
:104C70000662F60D46EA422606FB06F4A4FB012373
:104C80005242C3F1404338BF5B1EA6FB02420024E0
:104C9000E6FB0324D20B42EA4446A6FB0623A1FB13
:104CA00002E2A3FB07E4A4184FF0000252F1000255
:104CB000E3FB01426442C2F1404E38BFAEF1010E47
:104CC000A6FB04234FF00002E6FB0E32A2FB0346D4
:104CD0004FF00004B61954F10004E2FB0264A1FB9A
:104CE00006E6A4FB07E816EB08064FF0000858F1AB
:104CF0000008E4FB01687642C8F1405838BFA8F1CB
:104D00000108A2FB06E4A3FB08E52D194FF00004FF
:104D100054F10004E2FB0854A1FB05E6A7FB04E8FC
:104D200018EB06084FF0000656F10006E1FB04867A
:104D300018F1200556F10006A809A8F11B08B109D1
:104D400008F03F08B8F10A0F40EA86601CD901EB71
:104D50000C51BDE8F08100BFFCF5EEE8E2DDD8D3F0
:104D6000CFCBC7C3C0BDB9B6B4B1AEACA9A7A5A3DC
:104D7000A19F9D9B9A9896959392908F8D8C8B89ED
:104D80008887868584838281A0FB006800FB01F20E
:104D900008EB4208B8EB872807D5341858EB010414
:104DA000D5D5401C51F10001D1E7341A78EB01044C
:104DB000CDD4401E71F10001C9E75FEA4C0C5FEAF7
:104DC0009C5C0DD105D34FF0000001F00041BDE81F
:104DD000F081BDE8F04170B5FFF78EFE6DDBFFBEE0
:104DE000BDE8F0414FF00000004970470000F87F37
:104DF00010B591EA030F48BF83F000433FF5F4AAD2
:104E0000841A71EB030C07D212198CF0004C43EB9F
:104E10000C03001B61EB0C01DFF8A4E14FEA115415
:104E2000A4EB135C1EEA430F18BF9EEA445F00F038
:104E3000B08023EA6E03524221EA0451C3EB6E03B1
:104E400038BF5B1EDCF1200E25D322FA0CFE10EBDE
:104E50000E0043FA0CFE41EB0E01CCF1200E03FADA
:104E60000EFE10EB0E0051F10001CCF1200E29D402
:104E700012FA0EF201EB0451BDE8104058BF704722
:104E8000401C1CBFB2F1004F704700280CBF491CEA
:104E900020F00100704712EB020E43EB030218BF33
:104EA0004FF0010E4EEA4202ACF1200CDCF11E0E76
:104EB00054D943FA0CFE10EB0E0051F1FF31CCF146
:104EC0001E0ED5D50EF1010E12FA0EFE404141EB39
:104ED000010101EB445C5FEA5C5C10D910EBDE7011
:104EE00001EB045138BFBEF1004FBDE8104018BFC0
:104EF000704700280CBF491C20F00100704730D2D9
:104F00004FEAD42C11F5001124F400641BD0B1FA3F
:104F100081F20B3AA41AA41ED2F12003914030FA78
:104F200003F31943904001EBCC71002C01EB0451C9
:104F3000BDE81040A8BF704701F1C0414FF000002C
:104F400001F000417047B0FA80F310FA03F100D18C
:104F500010BDE41A173C4805C90AE4E701EB045107
:104F600010BD491001EB0451BDE810404FEA30007C
:104F700002E04FF0000170474A0008BF0042F8D03D
:104F8000B2F5001F28BF704701F000414FF000004C
:104F900070479EEA445F07D011EA5E0FBDE81040FB
:104FA00004BF002100207047BDE8104070B5FFF736
:104FB000A3FD00BF40DFF63E83F00041104670477E
:104FC0000000E0FF43004FEAD30C4FEA3C0C4340A3
:104FD0001FBF40070CF1605113F0FE4F70471CF0EB
:104FE000006F03D100200CF0004170470CF000432B
:104FF00043EA507010B540EACC0000F03DF900BF24
:10500000000000924FEA0001FFF7C4BD4FF00041DD
:105010004FF00000A1F500217047401058BFC0F1CB
:105020004040491058BFC1F140418142EFF3008038
:10503000704700004FF47F0C1CEAD0121EBF1CEA20
:10504000D11392EA0C0F93EA0C0F00F0858090EADE
:10505000010F48BF42F4807240F4000C41F400009C
:105060002CF07F4120F07F4000B58142A2EB03028B
:105070000FF2081CACEB504EC0F100009EF800E0AF
:105080004FEA4E0E00FB0EFC38BF49004FEA2C1CC5
:1050900002F5FA020CFB0EF34FEACE1E4FEA112C7A
:1050A0004FEAC1210EEB635E42EB22420EFB0CFC89
:1050B0004FEA1C5300FB03114FEA112C4FEA013158
:1050C0000EFB0CFC4FEADC4C00FB0C11C14228BF6C
:1050D00009184CEB03335DF804EB10EB410143EB93
:1050E000C250B2F57C0F38BF704729D512F0F00FCF
:1050F0001CBF00F1C04000F0004070470081828377
:105100008485868788898B8C8D8E8F9192939596D6
:1051100097999A9C9D9FA0A2A3A5A7A8AAACAEB060
:10512000B2B3B5B7B9BCBEC0C2C5C7C9CCCED1D465
:10513000D7D9DCDFE2E6E9ECF0F3F7FAFE00000095
:105140004FEA400C0CF1807CBCF17E4F28BF7047C9
:10515000B0F1C04000F0D6B890EA010F0CEAD113CC
:1051600048BF42F48072624538BF634507D213F4EA
:105170007F0F16D080EA010000F00040704710B5A4
:1051800000F07AF8097EFC3E00F005B880EA0100E4
:1051900000F00040704780EA010000F0004000F09D
:1051A000B1B812F47F0F04BF0248704780EA0100D3
:1051B00000F0A8B80000C07F10F0004148BF404296
:1051C000B0FA80F310FA03F2C3F19D030BD051EA59
:1051D000C35101EB1220530638BF704700F10100A4
:1051E00008BF20F001007047B0FA80F310FA03F214
:1051F000C3F19D030AD0D90501EB1220530638BF35
:10520000704700F1010008BF20F001007047000066
:1052100050EA010C00F113801CF5000F58BFBCF5DB
:10522000000F01D48842704707D710F5000F58BF10
:1052300011F5000F15D488427047894270471CF55C
:10524000000F04D5BCF5000FF7D5814270474FF031
:10525000807C1CEB400F38BF1CEB410F01D2814218
:10526000704710B500F008F8922449004FF0005044
:105270004FF08051FFF7D1BE0EF1020E2EF0030E5B
:105280005EF8044B244204D44FEA4102B2F17F4F4E
:1052900011D84FEA4003B3F17F4F0CD80ED14FEA3B
:1052A000D07CB2F17F4F0CEB4C0C0CF1020C08BF20
:1052B0004CEBD17C04E04FF0080C01E04FEAD17CCC
:1052C0000CEB4C0324FA03F404F00704B4F1040CCF
:1052D00006D20EEB840CBDE810404CF0010C604788
:1052E000DFE80CF0070802024FF00040A0F5800054
:1052F00010BD0846420018BFD2F1807288BF00F08E
:10530000004010BDFF2141EAD050C005704751EA6E
:10531000000C00F113801CF5000F58BFBCF5000F06
:1053200001D48142704707D711F5000F58BF10F51F
:10533000000F15D481427047894270471CF5000F59
:1053400004D5BCF5000FF7D5884270474FF0807C3C
:105350001CEB410F38BF1CEB400F01D28842704755
:1053600080EA010081EA000180EA0100FFF779BFCD
:105370000CF00F03092B08BF082000F059800A2BFE
:105380000BD0082B18BF704708BF1CF0400F0AD085
:105390004FF000004FF0000170471CF0400F18BFA5
:1053A0004FF0004070471CF0100F08D020F0704301
:1053B00000F07F4242EAD3014FEA4370704700F0A9
:1053C000604021F07F4242EA000201F07F4040EA63
:1053D000727070474FF0FF0C4CF4E06C1CEA1153F4
:1053E0001CBF9CEA030C9445C2BFDA4201EB025198
:1053F0007047002B0DD0BCF1000F0FD0002A01F038
:105400000041A4BF41F0E04141F07F614FF0000056
:10541000704701F000414FF00000704750EA01333F
:105420004FF09B0C18BF4CF0806C7FF47DA8704748
:105430001CF4801F11D01CF4E02F03D06FEACC3194
:10544000490070474FF04050EFF3008222F0704265
:1054500042EA000282F3008870474FF00000704774
:105460004FBB610567ACDD3F182D4454FB21E93F7C
:105470009BF681D20B73EF3F182D4454FB21F93F6B
:10548000E2652F227F2B7A3C075C143326A6813CF1
:10549000BDCBF07A8807703C075C143326A6913C9C
:1054A000C4EB98999999C9BF711623FEC671BCBF08
:1054B0006D9A74AFF2B0B3BF9AFDDE522DDEADBF70
:1054C0002F6C6A2C44B4A2BF0D5555555555D53F88
:1054D000FF8300922449C23F6E204CC5CD45B73FA3
:1054E000513DD0A0660DB13FEB0D76244B7BA93F1B
:1054F00011DA22E33AAD903F000000000000F03FD7
:10550000000000000000F83F000000000000000064
:105510000000004003B8E23F00000000000000006F
:1055200006D0CF43EBFD4C3E033333333333E33FFD
:10553000FFAB6FDBB66DDB3F4D268F515555D53F29
:1055400001411DA96074D13F65DBC9934A86CD3FF7
:10555000EF4E454A287ECA3F3E5555555555C53FE5
:1055600093BDBE166CC166BF2CDE25AF6A56113FD7
:10557000F16BD2C541BDBBBED0A4BE726937663ED9
:105580004C5555555555A53F7751C1166CC156BF61
:105590009015CB19A001FA3EAD529C804F7E92BE71
:1055A000C4B1B4BD9EEE213ED43888BEE9FAA8BD90
:1055B000000000000000000000004054FB21F93F03
:1055C0003163621A61B4D03D0000601A61B4D03D0D
:1055D0007370032E8A19A33B0000002E8A19A33B87
:1055E000C14920259A837B3900000000000000009B
:1055F0006E83F9A22915444ED15727FCC0DD34F53E
:10560000999562DB4190433CAB6351FE61C5BBDEC3
:105610003A6E24B7E0D24D42EA2E49061C92D109D7
:105620001CEB1DFE3EA729B1F53582E88444BB2E54
:1056300026709CE9417E5FB439D69139F4395383A1
:105640008B5F849C3B28F9BDFF97F81F0F9805DE00
:105650008B112FEF1F6D0A5ACF7E366DB709CB27FE
:10566000663F464F2DEA5F9EC7BA27757BF1E5EB93
:10567000F739073DEA92528AB15FFB6B085D8D1FD7
:10568000A6F810111111813FD561C119A0012ABFDF
:105690007DFEB157E31DC73EEB9C2B8AE6E55ABE63
:1056A0007CD5CF5A3AD9E53DC85600080000002005
:1056B000400000006C01000808570008400000206E
:1056C000C8080000880100080000000000A24A0489
:1056D00000000000000000000102030406070809A2
:1056E00000000000000000000102030401020304A6
:1056F0000607080902040608000000000000000078
:085700000000000000000000A1
:04000005080001CD21
:00000001FF
